{
  "_format": "hh-sol-artifact-1",
  "contractName": "StringNFT",
  "sourceName": "contracts/_String.sol",
  "abi": [
    {
      "inputs": [],
      "stateMutability": "nonpayable",
      "type": "constructor"
    },
    {
      "inputs": [],
      "name": "CompanyDoesNotExist",
      "type": "error"
    },
    {
      "inputs": [],
      "name": "MintTooMuchError",
      "type": "error"
    },
    {
      "inputs": [],
      "name": "NoTokenFound",
      "type": "error"
    },
    {
      "inputs": [],
      "name": "NotYourToken",
      "type": "error"
    },
    {
      "anonymous": false,
      "inputs": [
        {
          "indexed": true,
          "internalType": "address",
          "name": "owner",
          "type": "address"
        },
        {
          "indexed": true,
          "internalType": "address",
          "name": "approved",
          "type": "address"
        },
        {
          "indexed": true,
          "internalType": "uint256",
          "name": "tokenId",
          "type": "uint256"
        }
      ],
      "name": "Approval",
      "type": "event"
    },
    {
      "anonymous": false,
      "inputs": [
        {
          "indexed": true,
          "internalType": "address",
          "name": "owner",
          "type": "address"
        },
        {
          "indexed": true,
          "internalType": "address",
          "name": "operator",
          "type": "address"
        },
        {
          "indexed": false,
          "internalType": "bool",
          "name": "approved",
          "type": "bool"
        }
      ],
      "name": "ApprovalForAll",
      "type": "event"
    },
    {
      "anonymous": false,
      "inputs": [
        {
          "indexed": true,
          "internalType": "uint256",
          "name": "companyId",
          "type": "uint256"
        },
        {
          "indexed": false,
          "internalType": "string",
          "name": "name",
          "type": "string"
        }
      ],
      "name": "CompanyAdded",
      "type": "event"
    },
    {
      "anonymous": false,
      "inputs": [
        {
          "indexed": true,
          "internalType": "uint256",
          "name": "companyId",
          "type": "uint256"
        }
      ],
      "name": "CompanyRemoved",
      "type": "event"
    },
    {
      "anonymous": false,
      "inputs": [
        {
          "indexed": true,
          "internalType": "uint256",
          "name": "companyId",
          "type": "uint256"
        },
        {
          "indexed": true,
          "internalType": "address",
          "name": "employee",
          "type": "address"
        }
      ],
      "name": "EmployeeAdded",
      "type": "event"
    },
    {
      "anonymous": false,
      "inputs": [
        {
          "indexed": true,
          "internalType": "uint256",
          "name": "companyId",
          "type": "uint256"
        },
        {
          "indexed": true,
          "internalType": "address",
          "name": "employee",
          "type": "address"
        }
      ],
      "name": "EmployeeRemoved",
      "type": "event"
    },
    {
      "anonymous": false,
      "inputs": [
        {
          "indexed": true,
          "internalType": "address",
          "name": "previousOwner",
          "type": "address"
        },
        {
          "indexed": true,
          "internalType": "address",
          "name": "newOwner",
          "type": "address"
        }
      ],
      "name": "OwnershipTransferred",
      "type": "event"
    },
    {
      "anonymous": false,
      "inputs": [
        {
          "indexed": true,
          "internalType": "uint256",
          "name": "companyId",
          "type": "uint256"
        },
        {
          "indexed": true,
          "internalType": "uint256",
          "name": "productId",
          "type": "uint256"
        },
        {
          "indexed": false,
          "internalType": "string",
          "name": "name",
          "type": "string"
        }
      ],
      "name": "ProductAdded",
      "type": "event"
    },
    {
      "anonymous": false,
      "inputs": [
        {
          "indexed": true,
          "internalType": "uint256",
          "name": "companyId",
          "type": "uint256"
        },
        {
          "indexed": true,
          "internalType": "uint256",
          "name": "productId",
          "type": "uint256"
        }
      ],
      "name": "ProductRemoved",
      "type": "event"
    },
    {
      "anonymous": false,
      "inputs": [
        {
          "indexed": true,
          "internalType": "uint256",
          "name": "companyId",
          "type": "uint256"
        },
        {
          "indexed": true,
          "internalType": "uint256",
          "name": "productId",
          "type": "uint256"
        },
        {
          "indexed": true,
          "internalType": "uint256",
          "name": "tokenId",
          "type": "uint256"
        },
        {
          "indexed": false,
          "internalType": "address",
          "name": "to",
          "type": "address"
        }
      ],
      "name": "TokenMinted",
      "type": "event"
    },
    {
      "anonymous": false,
      "inputs": [
        {
          "indexed": true,
          "internalType": "uint256",
          "name": "tokenId",
          "type": "uint256"
        },
        {
          "indexed": true,
          "internalType": "address",
          "name": "from",
          "type": "address"
        },
        {
          "indexed": true,
          "internalType": "address",
          "name": "to",
          "type": "address"
        }
      ],
      "name": "TokenTransferred",
      "type": "event"
    },
    {
      "anonymous": false,
      "inputs": [
        {
          "indexed": true,
          "internalType": "address",
          "name": "from",
          "type": "address"
        },
        {
          "indexed": true,
          "internalType": "address",
          "name": "to",
          "type": "address"
        },
        {
          "indexed": true,
          "internalType": "uint256",
          "name": "tokenId",
          "type": "uint256"
        }
      ],
      "name": "Transfer",
      "type": "event"
    },
    {
      "inputs": [],
      "name": "MAX_MINT_AMOUNT",
      "outputs": [
        {
          "internalType": "uint16",
          "name": "",
          "type": "uint16"
        }
      ],
      "stateMutability": "view",
      "type": "function"
    },
    {
      "inputs": [
        {
          "internalType": "string",
          "name": "_name",
          "type": "string"
        }
      ],
      "name": "addCompany",
      "outputs": [],
      "stateMutability": "nonpayable",
      "type": "function"
    },
    {
      "inputs": [
        {
          "internalType": "uint256",
          "name": "_companyId",
          "type": "uint256"
        },
        {
          "internalType": "address",
          "name": "_employee",
          "type": "address"
        },
        {
          "components": [
            {
              "internalType": "bool",
              "name": "canMint",
              "type": "bool"
            },
            {
              "internalType": "bool",
              "name": "canTransfer",
              "type": "bool"
            },
            {
              "internalType": "bool",
              "name": "canDefine",
              "type": "bool"
            },
            {
              "internalType": "bool",
              "name": "canAuthorize",
              "type": "bool"
            }
          ],
          "internalType": "struct StringModel.Role",
          "name": "_permissions",
          "type": "tuple"
        }
      ],
      "name": "addEmployee",
      "outputs": [],
      "stateMutability": "nonpayable",
      "type": "function"
    },
    {
      "inputs": [
        {
          "internalType": "uint256",
          "name": "_companyId",
          "type": "uint256"
        },
        {
          "internalType": "string",
          "name": "_name",
          "type": "string"
        },
        {
          "internalType": "string",
          "name": "_description",
          "type": "string"
        },
        {
          "internalType": "string",
          "name": "_manufacturer",
          "type": "string"
        },
        {
          "internalType": "string",
          "name": "_category",
          "type": "string"
        },
        {
          "internalType": "uint256",
          "name": "_expireDate",
          "type": "uint256"
        }
      ],
      "name": "addProduct",
      "outputs": [],
      "stateMutability": "nonpayable",
      "type": "function"
    },
    {
      "inputs": [
        {
          "internalType": "address",
          "name": "to",
          "type": "address"
        },
        {
          "internalType": "uint256",
          "name": "tokenId",
          "type": "uint256"
        }
      ],
      "name": "approve",
      "outputs": [],
      "stateMutability": "nonpayable",
      "type": "function"
    },
    {
      "inputs": [
        {
          "internalType": "address",
          "name": "owner",
          "type": "address"
        }
      ],
      "name": "balanceOf",
      "outputs": [
        {
          "internalType": "uint256",
          "name": "",
          "type": "uint256"
        }
      ],
      "stateMutability": "view",
      "type": "function"
    },
    {
      "inputs": [
        {
          "internalType": "address",
          "name": "to",
          "type": "address"
        },
        {
          "internalType": "uint256[]",
          "name": "tokenIds",
          "type": "uint256[]"
        }
      ],
      "name": "bulkTransfer",
      "outputs": [],
      "stateMutability": "nonpayable",
      "type": "function"
    },
    {
      "inputs": [
        {
          "internalType": "uint256",
          "name": "",
          "type": "uint256"
        }
      ],
      "name": "companies",
      "outputs": [
        {
          "internalType": "uint256",
          "name": "initialized",
          "type": "uint256"
        },
        {
          "internalType": "string",
          "name": "name",
          "type": "string"
        },
        {
          "internalType": "uint256",
          "name": "productCount",
          "type": "uint256"
        }
      ],
      "stateMutability": "view",
      "type": "function"
    },
    {
      "inputs": [],
      "name": "companyCounter",
      "outputs": [
        {
          "internalType": "uint256",
          "name": "",
          "type": "uint256"
        }
      ],
      "stateMutability": "view",
      "type": "function"
    },
    {
      "inputs": [
        {
          "internalType": "uint256",
          "name": "_companyId",
          "type": "uint256"
        }
      ],
      "name": "getAllEmployees",
      "outputs": [
        {
          "components": [
            {
              "components": [
                {
                  "internalType": "bool",
                  "name": "canMint",
                  "type": "bool"
                },
                {
                  "internalType": "bool",
                  "name": "canTransfer",
                  "type": "bool"
                },
                {
                  "internalType": "bool",
                  "name": "canDefine",
                  "type": "bool"
                },
                {
                  "internalType": "bool",
                  "name": "canAuthorize",
                  "type": "bool"
                }
              ],
              "internalType": "struct StringModel.Role",
              "name": "permissions",
              "type": "tuple"
            },
            {
              "internalType": "address",
              "name": "employeeAddress",
              "type": "address"
            },
            {
              "internalType": "uint256",
              "name": "companyId",
              "type": "uint256"
            }
          ],
          "internalType": "struct StringModel.Employee[]",
          "name": "",
          "type": "tuple[]"
        }
      ],
      "stateMutability": "view",
      "type": "function"
    },
    {
      "inputs": [
        {
          "internalType": "uint256",
          "name": "companyId",
          "type": "uint256"
        }
      ],
      "name": "getAllProducts",
      "outputs": [
        {
          "components": [
            {
              "internalType": "string",
              "name": "name",
              "type": "string"
            },
            {
              "internalType": "string",
              "name": "description",
              "type": "string"
            },
            {
              "internalType": "string",
              "name": "manufacturer",
              "type": "string"
            },
            {
              "internalType": "string",
              "name": "category",
              "type": "string"
            },
            {
              "internalType": "uint256[]",
              "name": "productTokens",
              "type": "uint256[]"
            },
            {
              "internalType": "uint256",
              "name": "expireDate",
              "type": "uint256"
            },
            {
              "internalType": "bool",
              "name": "exists",
              "type": "bool"
            }
          ],
          "internalType": "struct StringModel.Product[]",
          "name": "",
          "type": "tuple[]"
        }
      ],
      "stateMutability": "view",
      "type": "function"
    },
    {
      "inputs": [
        {
          "internalType": "uint256",
          "name": "tokenId",
          "type": "uint256"
        }
      ],
      "name": "getApproved",
      "outputs": [
        {
          "internalType": "address",
          "name": "",
          "type": "address"
        }
      ],
      "stateMutability": "view",
      "type": "function"
    },
    {
      "inputs": [
        {
          "internalType": "uint256",
          "name": "_companyId",
          "type": "uint256"
        },
        {
          "internalType": "uint256",
          "name": "_productId",
          "type": "uint256"
        }
      ],
      "name": "getProduct",
      "outputs": [
        {
          "components": [
            {
              "internalType": "string",
              "name": "name",
              "type": "string"
            },
            {
              "internalType": "string",
              "name": "description",
              "type": "string"
            },
            {
              "internalType": "string",
              "name": "manufacturer",
              "type": "string"
            },
            {
              "internalType": "string",
              "name": "category",
              "type": "string"
            },
            {
              "internalType": "uint256[]",
              "name": "productTokens",
              "type": "uint256[]"
            },
            {
              "internalType": "uint256",
              "name": "expireDate",
              "type": "uint256"
            },
            {
              "internalType": "bool",
              "name": "exists",
              "type": "bool"
            }
          ],
          "internalType": "struct StringModel.Product",
          "name": "",
          "type": "tuple"
        }
      ],
      "stateMutability": "view",
      "type": "function"
    },
    {
      "inputs": [
        {
          "internalType": "uint256",
          "name": "_companyId",
          "type": "uint256"
        }
      ],
      "name": "getProductCount",
      "outputs": [
        {
          "internalType": "uint256",
          "name": "",
          "type": "uint256"
        }
      ],
      "stateMutability": "view",
      "type": "function"
    },
    {
      "inputs": [
        {
          "internalType": "address",
          "name": "owner",
          "type": "address"
        },
        {
          "internalType": "address",
          "name": "operator",
          "type": "address"
        }
      ],
      "name": "isApprovedForAll",
      "outputs": [
        {
          "internalType": "bool",
          "name": "",
          "type": "bool"
        }
      ],
      "stateMutability": "view",
      "type": "function"
    },
    {
      "inputs": [
        {
          "internalType": "uint256",
          "name": "_companyId",
          "type": "uint256"
        },
        {
          "internalType": "uint256",
          "name": "_productId",
          "type": "uint256"
        }
      ],
      "name": "mint",
      "outputs": [],
      "stateMutability": "nonpayable",
      "type": "function"
    },
    {
      "inputs": [
        {
          "internalType": "uint256",
          "name": "_companyId",
          "type": "uint256"
        },
        {
          "internalType": "uint256",
          "name": "_productId",
          "type": "uint256"
        },
        {
          "internalType": "uint16",
          "name": "amount",
          "type": "uint16"
        }
      ],
      "name": "mintBulk",
      "outputs": [],
      "stateMutability": "nonpayable",
      "type": "function"
    },
    {
      "inputs": [],
      "name": "name",
      "outputs": [
        {
          "internalType": "string",
          "name": "",
          "type": "string"
        }
      ],
      "stateMutability": "view",
      "type": "function"
    },
    {
      "inputs": [],
      "name": "owner",
      "outputs": [
        {
          "internalType": "address",
          "name": "",
          "type": "address"
        }
      ],
      "stateMutability": "view",
      "type": "function"
    },
    {
      "inputs": [
        {
          "internalType": "uint256",
          "name": "tokenId",
          "type": "uint256"
        }
      ],
      "name": "ownerOf",
      "outputs": [
        {
          "internalType": "address",
          "name": "",
          "type": "address"
        }
      ],
      "stateMutability": "view",
      "type": "function"
    },
    {
      "inputs": [
        {
          "internalType": "uint256",
          "name": "companyId",
          "type": "uint256"
        }
      ],
      "name": "removeCompany",
      "outputs": [],
      "stateMutability": "nonpayable",
      "type": "function"
    },
    {
      "inputs": [
        {
          "internalType": "uint256",
          "name": "_companyId",
          "type": "uint256"
        },
        {
          "internalType": "address",
          "name": "_employee",
          "type": "address"
        }
      ],
      "name": "removeEmployee",
      "outputs": [],
      "stateMutability": "nonpayable",
      "type": "function"
    },
    {
      "inputs": [
        {
          "internalType": "uint256",
          "name": "_companyId",
          "type": "uint256"
        },
        {
          "internalType": "uint256",
          "name": "_productId",
          "type": "uint256"
        }
      ],
      "name": "removeProduct",
      "outputs": [],
      "stateMutability": "nonpayable",
      "type": "function"
    },
    {
      "inputs": [],
      "name": "renounceOwnership",
      "outputs": [],
      "stateMutability": "nonpayable",
      "type": "function"
    },
    {
      "inputs": [
        {
          "internalType": "address",
          "name": "from",
          "type": "address"
        },
        {
          "internalType": "address",
          "name": "to",
          "type": "address"
        },
        {
          "internalType": "uint256",
          "name": "tokenId",
          "type": "uint256"
        }
      ],
      "name": "safeTransferFrom",
      "outputs": [],
      "stateMutability": "nonpayable",
      "type": "function"
    },
    {
      "inputs": [
        {
          "internalType": "address",
          "name": "from",
          "type": "address"
        },
        {
          "internalType": "address",
          "name": "to",
          "type": "address"
        },
        {
          "internalType": "uint256",
          "name": "tokenId",
          "type": "uint256"
        },
        {
          "internalType": "bytes",
          "name": "data",
          "type": "bytes"
        }
      ],
      "name": "safeTransferFrom",
      "outputs": [],
      "stateMutability": "nonpayable",
      "type": "function"
    },
    {
      "inputs": [
        {
          "internalType": "address",
          "name": "operator",
          "type": "address"
        },
        {
          "internalType": "bool",
          "name": "approved",
          "type": "bool"
        }
      ],
      "name": "setApprovalForAll",
      "outputs": [],
      "stateMutability": "nonpayable",
      "type": "function"
    },
    {
      "inputs": [
        {
          "internalType": "bytes4",
          "name": "interfaceId",
          "type": "bytes4"
        }
      ],
      "name": "supportsInterface",
      "outputs": [
        {
          "internalType": "bool",
          "name": "",
          "type": "bool"
        }
      ],
      "stateMutability": "view",
      "type": "function"
    },
    {
      "inputs": [],
      "name": "symbol",
      "outputs": [
        {
          "internalType": "string",
          "name": "",
          "type": "string"
        }
      ],
      "stateMutability": "view",
      "type": "function"
    },
    {
      "inputs": [
        {
          "internalType": "uint256",
          "name": "index",
          "type": "uint256"
        }
      ],
      "name": "tokenByIndex",
      "outputs": [
        {
          "internalType": "uint256",
          "name": "",
          "type": "uint256"
        }
      ],
      "stateMutability": "view",
      "type": "function"
    },
    {
      "inputs": [
        {
          "internalType": "address",
          "name": "owner",
          "type": "address"
        },
        {
          "internalType": "uint256",
          "name": "index",
          "type": "uint256"
        }
      ],
      "name": "tokenOfOwnerByIndex",
      "outputs": [
        {
          "internalType": "uint256",
          "name": "",
          "type": "uint256"
        }
      ],
      "stateMutability": "view",
      "type": "function"
    },
    {
      "inputs": [
        {
          "internalType": "uint256",
          "name": "tokenId",
          "type": "uint256"
        }
      ],
      "name": "tokenURI",
      "outputs": [
        {
          "internalType": "string",
          "name": "",
          "type": "string"
        }
      ],
      "stateMutability": "view",
      "type": "function"
    },
    {
      "inputs": [],
      "name": "totalSupply",
      "outputs": [
        {
          "internalType": "uint256",
          "name": "",
          "type": "uint256"
        }
      ],
      "stateMutability": "view",
      "type": "function"
    },
    {
      "inputs": [
        {
          "internalType": "address",
          "name": "to",
          "type": "address"
        },
        {
          "internalType": "uint256",
          "name": "_tokenId",
          "type": "uint256"
        }
      ],
      "name": "transfer",
      "outputs": [],
      "stateMutability": "nonpayable",
      "type": "function"
    },
    {
      "inputs": [
        {
          "internalType": "address",
          "name": "from",
          "type": "address"
        },
        {
          "internalType": "address",
          "name": "to",
          "type": "address"
        },
        {
          "internalType": "uint256",
          "name": "tokenId",
          "type": "uint256"
        }
      ],
      "name": "transferFrom",
      "outputs": [],
      "stateMutability": "nonpayable",
      "type": "function"
    },
    {
      "inputs": [
        {
          "internalType": "address",
          "name": "newOwner",
          "type": "address"
        }
      ],
      "name": "transferOwnership",
      "outputs": [],
      "stateMutability": "nonpayable",
      "type": "function"
    },
    {
      "inputs": [
        {
          "internalType": "address",
          "name": "targetWallet",
          "type": "address"
        }
      ],
      "name": "walletOfOwner",
      "outputs": [
        {
          "internalType": "uint256[]",
          "name": "",
          "type": "uint256[]"
        }
      ],
      "stateMutability": "view",
      "type": "function"
    }
  ],
  "bytecode": "0x60806040526000600b556000600c553480156200001b57600080fd5b506040518060400160405280600981526020017f537472696e674e465400000000000000000000000000000000000000000000008152506040518060400160405280600481526020017f534e4654000000000000000000000000000000000000000000000000000000008152508160009080519060200190620000a0929190620001b0565b508060019080519060200190620000b9929190620001b0565b505050620000dc620000d0620000e260201b60201c565b620000ea60201b60201c565b620002c5565b600033905090565b6000600a60009054906101000a900473ffffffffffffffffffffffffffffffffffffffff16905081600a60006101000a81548173ffffffffffffffffffffffffffffffffffffffff021916908373ffffffffffffffffffffffffffffffffffffffff1602179055508173ffffffffffffffffffffffffffffffffffffffff168173ffffffffffffffffffffffffffffffffffffffff167f8be0079c531659141344cd1fd0a4f28419497f9722a3daafe3b4186f6b6457e060405160405180910390a35050565b828054620001be906200028f565b90600052602060002090601f016020900481019282620001e257600085556200022e565b82601f10620001fd57805160ff19168380011785556200022e565b828001600101855582156200022e579182015b828111156200022d57825182559160200191906001019062000210565b5b5090506200023d919062000241565b5090565b5b808211156200025c57600081600090555060010162000242565b5090565b7f4e487b7100000000000000000000000000000000000000000000000000000000600052602260045260246000fd5b60006002820490506001821680620002a857607f821691505b60208210811415620002bf57620002be62000260565b5b50919050565b615ec580620002d56000396000f3fe608060405234801561001057600080fd5b50600436106102275760003560e01c80634f6ccce711610130578063a9059cbb116100b8578063d28a47611161007c578063d28a4761146106aa578063d6483d17146106c6578063e985e9c5146106e2578063f2fde38b14610712578063fa9b70181461072e57610227565b8063a9059cbb146105f6578063ad4891ee14610612578063b88d4fde14610642578063c7afdbbf1461065e578063c87b56dd1461067a57610227565b806370a08231116100ff57806370a0823114610564578063715018a6146105945780638da5cb5b1461059e57806395d89b41146105bc578063a22cb465146105da57610227565b80634f6ccce7146104b8578063510636a8146104e85780635287d535146105185780636352211e1461053457610227565b806326c659a9116101b35780633b54dd48116101825780633b54dd48146104165780633f21d44c1461043257806342842e0e1461044e578063438b63001461046a5780634ededc641461049a57610227565b806326c659a9146103685780632813d19d146103985780632f745c59146103ca578063397914c6146103fa57610227565b8063095ea7b3116101fa578063095ea7b3146102c657806318160ddd146102e25780631b2ef1ca1461030057806323b872dd1461031c57806324f346ab1461033857610227565b806301ffc9a71461022c57806306c613431461025c57806306fdde0314610278578063081812fc14610296575b600080fd5b61024660048036038101906102419190614035565b61074c565b604051610253919061407d565b60405180910390f35b61027660048036038101906102719190614214565b6107c6565b005b610280610a50565b60405161028d9190614399565b60405180910390f35b6102b060048036038101906102ab91906143bb565b610ae2565b6040516102bd9190614429565b60405180910390f35b6102e060048036038101906102db9190614470565b610b28565b005b6102ea610c40565b6040516102f791906144bf565b60405180910390f35b61031a600480360381019061031591906144da565b610c4d565b005b6103366004803603810190610331919061451a565b610e18565b005b610352600480360381019061034d91906144da565b610e78565b60405161035f919061473c565b60405180910390f35b610382600480360381019061037d91906143bb565b6111dc565b60405161038f91906148d8565b60405180910390f35b6103b260048036038101906103ad91906143bb565b611590565b6040516103c1939291906148fa565b60405180910390f35b6103e460048036038101906103df9190614470565b611642565b6040516103f191906144bf565b60405180910390f35b610414600480360381019061040f9190614938565b6116e7565b005b610430600480360381019061042b91906149b2565b611905565b005b61044c600480360381019061044791906143bb565b611a36565b005b6104686004803603810190610463919061451a565b611ab4565b005b610484600480360381019061047f9190614a05565b611ad4565b6040516104919190614aa1565b60405180910390f35b6104a2611b82565b6040516104af91906144bf565b60405180910390f35b6104d260048036038101906104cd91906143bb565b611b88565b6040516104df91906144bf565b60405180910390f35b61050260048036038101906104fd91906143bb565b611bf9565b60405161050f9190614c18565b60405180910390f35b610532600480360381019061052d91906144da565b611e2a565b005b61054e600480360381019061054991906143bb565b612013565b60405161055b9190614429565b60405180910390f35b61057e60048036038101906105799190614a05565b61209a565b60405161058b91906144bf565b60405180910390f35b61059c612152565b005b6105a6612166565b6040516105b39190614429565b60405180910390f35b6105c4612190565b6040516105d19190614399565b60405180910390f35b6105f460048036038101906105ef9190614c66565b612222565b005b610610600480360381019061060b9190614470565b612238565b005b61062c600480360381019061062791906143bb565b612350565b60405161063991906144bf565b60405180910390f35b61065c60048036038101906106579190614d47565b612375565b005b61067860048036038101906106739190614e47565b6123d7565b005b610694600480360381019061068f91906143bb565b6126f6565b6040516106a19190614399565b60405180910390f35b6106c460048036038101906106bf9190614f62565b61275e565b005b6106e060048036038101906106db9190614fbe565b6127a6565b005b6106fc60048036038101906106f79190615007565b61284e565b604051610709919061407d565b60405180910390f35b61072c60048036038101906107279190614a05565b6128e2565b005b610736612966565b6040516107439190615056565b60405180910390f35b60007f780e9d63000000000000000000000000000000000000000000000000000000007bffffffffffffffffffffffffffffffffffffffffffffffffffffffff1916827bffffffffffffffffffffffffffffffffffffffffffffffffffffffff191614806107bf57506107be8261296c565b5b9050919050565b600d60008781526020019081526020016000206107e281612a4e565b60008160020160003373ffffffffffffffffffffffffffffffffffffffff1673ffffffffffffffffffffffffffffffffffffffff16815260200190815260200160002060000190508060000160029054906101000a900460ff1661087b576040517f08c379a0000000000000000000000000000000000000000000000000000000008152600401610872906150e3565b60405180910390fd5b6000600d60008a815260200190815260200160002090508060040160008154809291906108a790615132565b919050555060006040518060e001604052808a8152602001898152602001888152602001878152602001600067ffffffffffffffff8111156108ec576108eb6140e9565b5b60405190808252806020026020018201604052801561091a5781602001602082028036833780820191505090505b50815260200186815260200160011515815250905080826003016000846004015481526020019081526020016000206000820151816000019080519060200190610965929190613dab565b506020820151816001019080519060200190610982929190613dab565b50604082015181600201908051906020019061099f929190613dab565b5060608201518160030190805190602001906109bc929190613dab565b5060808201518160040190805190602001906109d9929190613e31565b5060a0820151816005015560c08201518160060160006101000a81548160ff02191690831515021790555090505081600401548a7f504b79b6b7acf3ade94783d01cc4c5b4778e433229f491d4aa877f32d7aab6598b604051610a3c9190614399565b60405180910390a350505050505050505050565b606060008054610a5f906151aa565b80601f0160208091040260200160405190810160405280929190818152602001828054610a8b906151aa565b8015610ad85780601f10610aad57610100808354040283529160200191610ad8565b820191906000526020600020905b815481529060010190602001808311610abb57829003601f168201915b5050505050905090565b6000610aed82612a8f565b6004600083815260200190815260200160002060009054906101000a900473ffffffffffffffffffffffffffffffffffffffff169050919050565b6000610b3382612013565b90508073ffffffffffffffffffffffffffffffffffffffff168373ffffffffffffffffffffffffffffffffffffffff161415610ba4576040517f08c379a0000000000000000000000000000000000000000000000000000000008152600401610b9b9061524e565b60405180910390fd5b8073ffffffffffffffffffffffffffffffffffffffff16610bc3612ada565b73ffffffffffffffffffffffffffffffffffffffff161480610bf25750610bf181610bec612ada565b61284e565b5b610c31576040517f08c379a0000000000000000000000000000000000000000000000000000000008152600401610c28906152e0565b60405180910390fd5b610c3b8383612ae2565b505050565b6000600880549050905090565b600d6000838152602001908152602001600020610c6981612a4e565b60008160020160003373ffffffffffffffffffffffffffffffffffffffff1673ffffffffffffffffffffffffffffffffffffffff16815260200190815260200160002060000190508060000160009054906101000a900460ff16610d02576040517f08c379a0000000000000000000000000000000000000000000000000000000008152600401610cf990615372565b60405180910390fd5b600b6000815480929190610d1590615132565b91905055506000600d60008681526020019081526020016000209050600081600301600086815260200190815260200160002090508060060160009054906101000a900460ff16610d9b576040517f08c379a0000000000000000000000000000000000000000000000000000000008152600401610d92906153de565b60405180910390fd5b80600401600b549080600181540180825580915050600190039060005260206000200160009091909190915055610dd433600b54612b9b565b600b5485877f0a20fc1c77df8b4a972d893c02c04cb24cbb841a0d8083766ae9806bd93ef02d33604051610e089190614429565b60405180910390a4505050505050565b610e29610e23612ada565b82612db9565b610e68576040517f08c379a0000000000000000000000000000000000000000000000000000000008152600401610e5f90615470565b60405180910390fd5b610e73838383612e4e565b505050565b610e80613e7e565b6000600d60008581526020019081526020016000209050600081600301600085815260200190815260200160002090508060060160009054906101000a900460ff16610f01576040517f08c379a0000000000000000000000000000000000000000000000000000000008152600401610ef8906153de565b60405180910390fd5b806040518060e0016040529081600082018054610f1d906151aa565b80601f0160208091040260200160405190810160405280929190818152602001828054610f49906151aa565b8015610f965780601f10610f6b57610100808354040283529160200191610f96565b820191906000526020600020905b815481529060010190602001808311610f7957829003601f168201915b50505050508152602001600182018054610faf906151aa565b80601f0160208091040260200160405190810160405280929190818152602001828054610fdb906151aa565b80156110285780601f10610ffd57610100808354040283529160200191611028565b820191906000526020600020905b81548152906001019060200180831161100b57829003601f168201915b50505050508152602001600282018054611041906151aa565b80601f016020809104026020016040519081016040528092919081815260200182805461106d906151aa565b80156110ba5780601f1061108f576101008083540402835291602001916110ba565b820191906000526020600020905b81548152906001019060200180831161109d57829003601f168201915b505050505081526020016003820180546110d3906151aa565b80601f01602080910402602001604051908101604052809291908181526020018280546110ff906151aa565b801561114c5780601f106111215761010080835404028352916020019161114c565b820191906000526020600020905b81548152906001019060200180831161112f57829003601f168201915b50505050508152602001600482018054806020026020016040519081016040528092919081815260200182805480156111a457602002820191906000526020600020905b815481526020019060010190808311611190575b50505050508152602001600582015481526020016006820160009054906101000a900460ff1615151515815250509250505092915050565b60606000600d600084815260200190815260200160002090506000816004015467ffffffffffffffff811115611215576112146140e9565b5b60405190808252806020026020018201604052801561124e57816020015b61123b613e7e565b8152602001906001900390816112335790505b5090506000600190505b82600401548111611585578260030160008281526020019081526020016000206040518060e0016040529081600082018054611293906151aa565b80601f01602080910402602001604051908101604052809291908181526020018280546112bf906151aa565b801561130c5780601f106112e15761010080835404028352916020019161130c565b820191906000526020600020905b8154815290600101906020018083116112ef57829003601f168201915b50505050508152602001600182018054611325906151aa565b80601f0160208091040260200160405190810160405280929190818152602001828054611351906151aa565b801561139e5780601f106113735761010080835404028352916020019161139e565b820191906000526020600020905b81548152906001019060200180831161138157829003601f168201915b505050505081526020016002820180546113b7906151aa565b80601f01602080910402602001604051908101604052809291908181526020018280546113e3906151aa565b80156114305780601f1061140557610100808354040283529160200191611430565b820191906000526020600020905b81548152906001019060200180831161141357829003601f168201915b50505050508152602001600382018054611449906151aa565b80601f0160208091040260200160405190810160405280929190818152602001828054611475906151aa565b80156114c25780601f10611497576101008083540402835291602001916114c2565b820191906000526020600020905b8154815290600101906020018083116114a557829003601f168201915b505050505081526020016004820180548060200260200160405190810160405280929190818152602001828054801561151a57602002820191906000526020600020905b815481526020019060010190808311611506575b50505050508152602001600582015481526020016006820160009054906101000a900460ff161515151581525050826001836115569190615490565b81518110611567576115666154c4565b5b6020026020010181905250808061157d90615132565b915050611258565b508092505050919050565b600d6020528060005260406000206000915090508060000154908060010180546115b9906151aa565b80601f01602080910402602001604051908101604052809291908181526020018280546115e5906151aa565b80156116325780601f1061160757610100808354040283529160200191611632565b820191906000526020600020905b81548152906001019060200180831161161557829003601f168201915b5050505050908060040154905083565b600061164d8361209a565b821061168e576040517f08c379a000000000000000000000000000000000000000000000000000000000815260040161168590615565565b60405180910390fd5b600660008473ffffffffffffffffffffffffffffffffffffffff1673ffffffffffffffffffffffffffffffffffffffff168152602001908152602001600020600083815260200190815260200160002054905092915050565b600d600083815260200190815260200160002061170381612a4e565b60008160020160003373ffffffffffffffffffffffffffffffffffffffff1673ffffffffffffffffffffffffffffffffffffffff1681526020019081526020016000206000019050611753612166565b73ffffffffffffffffffffffffffffffffffffffff163373ffffffffffffffffffffffffffffffffffffffff16148061179a57508060000160039054906101000a900460ff165b6117d9576040517f08c379a00000000000000000000000000000000000000000000000000000000081526004016117d0906155f7565b60405180910390fd5b6000600d600086815260200190815260200160002090508060020160008573ffffffffffffffffffffffffffffffffffffffff1673ffffffffffffffffffffffffffffffffffffffff1681526020019081526020016000206000808201600080820160006101000a81549060ff02191690556000820160016101000a81549060ff02191690556000820160026101000a81549060ff02191690556000820160036101000a81549060ff021916905550506001820160006101000a81549073ffffffffffffffffffffffffffffffffffffffff0219169055600282016000905550508373ffffffffffffffffffffffffffffffffffffffff16857fdfcc7e5babfa5dde64e1e03185335f35dd50ccee8caca36c8f16e0772e00e7e060405160405180910390a35050505050565b600d600084815260200190815260200160002061192181612a4e565b60008160020160003373ffffffffffffffffffffffffffffffffffffffff1673ffffffffffffffffffffffffffffffffffffffff16815260200190815260200160002060000190508060000160009054906101000a900460ff166119ba576040517f08c379a00000000000000000000000000000000000000000000000000000000081526004016119b190615372565b60405180910390fd5b6103e861ffff168361ffff1611156119fe576040517f4b09724f00000000000000000000000000000000000000000000000000000000815260040160405180910390fd5b60005b8361ffff168161ffff161015611a2e57611a1b8686610c4d565b8080611a2690615617565b915050611a01565b505050505050565b611a3e613148565b600d6000828152602001908152602001600020600080820160009055600182016000611a6a9190613ebd565b6004820160009055600582016000611a829190613efd565b5050807f028fe2791b514c47642f0d652f7c237752aea1929ed16396ef24b45eb7e2b31560405160405180910390a250565b611acf83838360405180602001604052806000815250612375565b505050565b60606000611ae18361209a565b905060008167ffffffffffffffff811115611aff57611afe6140e9565b5b604051908082528060200260200182016040528015611b2d5781602001602082028036833780820191505090505b50905060005b82811015611b7757611b458582611642565b828281518110611b5857611b576154c4565b5b6020026020010181815250508080611b6f90615132565b915050611b33565b508092505050919050565b600c5481565b6000611b92610c40565b8210611bd3576040517f08c379a0000000000000000000000000000000000000000000000000000000008152600401611bca906156b4565b60405180910390fd5b60088281548110611be757611be66154c4565b5b90600052602060002001549050919050565b60606000600d6000848152602001908152602001600020905060008160050180549050905060008167ffffffffffffffff811115611c3a57611c396140e9565b5b604051908082528060200260200182016040528015611c7357816020015b611c60613f1e565b815260200190600190039081611c585790505b50905060005b82811015611e1e57836002016000856005018381548110611c9d57611c9c6154c4565b5b9060005260206000200160009054906101000a900473ffffffffffffffffffffffffffffffffffffffff1673ffffffffffffffffffffffffffffffffffffffff1673ffffffffffffffffffffffffffffffffffffffff168152602001908152602001600020604051806060016040529081600082016040518060800160405290816000820160009054906101000a900460ff161515151581526020016000820160019054906101000a900460ff161515151581526020016000820160029054906101000a900460ff161515151581526020016000820160039054906101000a900460ff16151515158152505081526020016001820160009054906101000a900473ffffffffffffffffffffffffffffffffffffffff1673ffffffffffffffffffffffffffffffffffffffff1673ffffffffffffffffffffffffffffffffffffffff168152602001600282015481525050828281518110611e0057611dff6154c4565b5b60200260200101819052508080611e1690615132565b915050611c79565b50809350505050919050565b600d6000838152602001908152602001600020611e4681612a4e565b60008160020160003373ffffffffffffffffffffffffffffffffffffffff1673ffffffffffffffffffffffffffffffffffffffff16815260200190815260200160002060000190508060000160029054906101000a900460ff16611edf576040517f08c379a0000000000000000000000000000000000000000000000000000000008152600401611ed6906150e3565b60405180910390fd5b6000600d60008681526020019081526020016000209050600081600301600086815260200190815260200160002090506000816004018054905014611f59576040517f08c379a0000000000000000000000000000000000000000000000000000000008152600401611f5090615746565b60405180910390fd5b81600301600086815260200190815260200160002060008082016000611f7f9190613ebd565b600182016000611f8f9190613ebd565b600282016000611f9f9190613ebd565b600382016000611faf9190613ebd565b600482016000611fbf9190613f5b565b60058201600090556006820160006101000a81549060ff0219169055505084867fd647384cccbd8b477a7b02b9e866072937e9a23b473b9de13fc0c6cb1d392a0a60405160405180910390a3505050505050565b60008061201f836131c6565b9050600073ffffffffffffffffffffffffffffffffffffffff168173ffffffffffffffffffffffffffffffffffffffff161415612091576040517f08c379a0000000000000000000000000000000000000000000000000000000008152600401612088906157b2565b60405180910390fd5b80915050919050565b60008073ffffffffffffffffffffffffffffffffffffffff168273ffffffffffffffffffffffffffffffffffffffff16141561210b576040517f08c379a000000000000000000000000000000000000000000000000000000000815260040161210290615844565b60405180910390fd5b600360008373ffffffffffffffffffffffffffffffffffffffff1673ffffffffffffffffffffffffffffffffffffffff168152602001908152602001600020549050919050565b61215a613148565b6121646000613203565b565b6000600a60009054906101000a900473ffffffffffffffffffffffffffffffffffffffff16905090565b60606001805461219f906151aa565b80601f01602080910402602001604051908101604052809291908181526020018280546121cb906151aa565b80156122185780601f106121ed57610100808354040283529160200191612218565b820191906000526020600020905b8154815290600101906020018083116121fb57829003601f168201915b5050505050905090565b61223461222d612ada565b83836132c9565b5050565b803373ffffffffffffffffffffffffffffffffffffffff1661225982612013565b73ffffffffffffffffffffffffffffffffffffffff16146122a6576040517f091fe61c00000000000000000000000000000000000000000000000000000000815260040160405180910390fd5b6122af81613436565b6122e5576040517f4f49b94200000000000000000000000000000000000000000000000000000000815260040160405180910390fd5b6122f0338484610e18565b8273ffffffffffffffffffffffffffffffffffffffff163373ffffffffffffffffffffffffffffffffffffffff16837fa84f763be5bb36163517fb87c7af39f875a97866fdf7806eb1b3eac837ae35ea60405160405180910390a4505050565b600080600d600084815260200190815260200160002090508060040154915050919050565b612386612380612ada565b83612db9565b6123c5576040517f08c379a00000000000000000000000000000000000000000000000000000000081526004016123bc90615470565b60405180910390fd5b6123d184848484613477565b50505050565b6123df613148565b600d60008481526020019081526020016000206123fb81612a4e565b60008160020160003373ffffffffffffffffffffffffffffffffffffffff1673ffffffffffffffffffffffffffffffffffffffff168152602001908152602001600020600001905061244b612166565b73ffffffffffffffffffffffffffffffffffffffff163373ffffffffffffffffffffffffffffffffffffffff16148061249257508060000160039054906101000a900460ff165b6124d1576040517f08c379a00000000000000000000000000000000000000000000000000000000081526004016124c8906155f7565b60405180910390fd5b60405180606001604052808481526020018573ffffffffffffffffffffffffffffffffffffffff16815260200186815250600d600087815260200190815260200160002060020160008673ffffffffffffffffffffffffffffffffffffffff1673ffffffffffffffffffffffffffffffffffffffff16815260200190815260200160002060008201518160000160008201518160000160006101000a81548160ff02191690831515021790555060208201518160000160016101000a81548160ff02191690831515021790555060408201518160000160026101000a81548160ff02191690831515021790555060608201518160000160036101000a81548160ff021916908315150217905550505060208201518160010160006101000a81548173ffffffffffffffffffffffffffffffffffffffff021916908373ffffffffffffffffffffffffffffffffffffffff16021790555060408201518160020155905050600d6000868152602001908152602001600020600501849080600181540180825580915050600190039060005260206000200160009091909190916101000a81548173ffffffffffffffffffffffffffffffffffffffff021916908373ffffffffffffffffffffffffffffffffffffffff1602179055508373ffffffffffffffffffffffffffffffffffffffff16857f40ff9d12272bfe4858e50671fc7f95e46d1040416ae78d20b8d6a3890c4f240e60405160405180910390a35050505050565b606061270182612a8f565b600061270b6134d3565b9050600081511161272b5760405180602001604052806000815250612756565b80612735846134ea565b6040516020016127469291906158a0565b6040516020818303038152906040525b915050919050565b60005b81518110156127a15761278e83838381518110612781576127806154c4565b5b6020026020010151612238565b808061279990615132565b915050612761565b505050565b6127ae613148565b80600d6000600c54815260200190815260200160002060010190805190602001906127da929190613dab565b506001600d6000600c54815260200190815260200160002060000181905550600c547f978425ef2f425127f39e68671f1e43b1a2ba2fdaade561bd8a9f9ea9e176d12d8260405161282b9190614399565b60405180910390a2600c600081548092919061284690615132565b919050555050565b6000600560008473ffffffffffffffffffffffffffffffffffffffff1673ffffffffffffffffffffffffffffffffffffffff16815260200190815260200160002060008373ffffffffffffffffffffffffffffffffffffffff1673ffffffffffffffffffffffffffffffffffffffff16815260200190815260200160002060009054906101000a900460ff16905092915050565b6128ea613148565b600073ffffffffffffffffffffffffffffffffffffffff168173ffffffffffffffffffffffffffffffffffffffff16141561295a576040517f08c379a000000000000000000000000000000000000000000000000000000000815260040161295190615936565b60405180910390fd5b61296381613203565b50565b6103e881565b60007f80ac58cd000000000000000000000000000000000000000000000000000000007bffffffffffffffffffffffffffffffffffffffffffffffffffffffff1916827bffffffffffffffffffffffffffffffffffffffffffffffffffffffff19161480612a3757507f5b5e139f000000000000000000000000000000000000000000000000000000007bffffffffffffffffffffffffffffffffffffffffffffffffffffffff1916827bffffffffffffffffffffffffffffffffffffffffffffffffffffffff1916145b80612a475750612a46826135c2565b5b9050919050565b6000816000015414612a8c576040517f308084dc00000000000000000000000000000000000000000000000000000000815260040160405180910390fd5b50565b612a9881613436565b612ad7576040517f08c379a0000000000000000000000000000000000000000000000000000000008152600401612ace906157b2565b60405180910390fd5b50565b600033905090565b816004600083815260200190815260200160002060006101000a81548173ffffffffffffffffffffffffffffffffffffffff021916908373ffffffffffffffffffffffffffffffffffffffff160217905550808273ffffffffffffffffffffffffffffffffffffffff16612b5583612013565b73ffffffffffffffffffffffffffffffffffffffff167f8c5be1e5ebec7d5bd14f71427d1e84f3dd0314c0f7b2291e5b200ac8c7c3b92560405160405180910390a45050565b600073ffffffffffffffffffffffffffffffffffffffff168273ffffffffffffffffffffffffffffffffffffffff161415612c0b576040517f08c379a0000000000000000000000000000000000000000000000000000000008152600401612c02906159a2565b60405180910390fd5b612c1481613436565b15612c54576040517f08c379a0000000000000000000000000000000000000000000000000000000008152600401612c4b90615a0e565b60405180910390fd5b612c6260008383600161362c565b612c6b81613436565b15612cab576040517f08c379a0000000000000000000000000000000000000000000000000000000008152600401612ca290615a0e565b60405180910390fd5b6001600360008473ffffffffffffffffffffffffffffffffffffffff1673ffffffffffffffffffffffffffffffffffffffff16815260200190815260200160002060008282540192505081905550816002600083815260200190815260200160002060006101000a81548173ffffffffffffffffffffffffffffffffffffffff021916908373ffffffffffffffffffffffffffffffffffffffff160217905550808273ffffffffffffffffffffffffffffffffffffffff16600073ffffffffffffffffffffffffffffffffffffffff167fddf252ad1be2c89b69c2b068fc378daa952ba7f163c4a11628f55a4df523b3ef60405160405180910390a4612db560008383600161378c565b5050565b600080612dc583612013565b90508073ffffffffffffffffffffffffffffffffffffffff168473ffffffffffffffffffffffffffffffffffffffff161480612e075750612e06818561284e565b5b80612e4557508373ffffffffffffffffffffffffffffffffffffffff16612e2d84610ae2565b73ffffffffffffffffffffffffffffffffffffffff16145b91505092915050565b8273ffffffffffffffffffffffffffffffffffffffff16612e6e82612013565b73ffffffffffffffffffffffffffffffffffffffff1614612ec4576040517f08c379a0000000000000000000000000000000000000000000000000000000008152600401612ebb90615aa0565b60405180910390fd5b600073ffffffffffffffffffffffffffffffffffffffff168273ffffffffffffffffffffffffffffffffffffffff161415612f34576040517f08c379a0000000000000000000000000000000000000000000000000000000008152600401612f2b90615b32565b60405180910390fd5b612f41838383600161362c565b8273ffffffffffffffffffffffffffffffffffffffff16612f6182612013565b73ffffffffffffffffffffffffffffffffffffffff1614612fb7576040517f08c379a0000000000000000000000000000000000000000000000000000000008152600401612fae90615aa0565b60405180910390fd5b6004600082815260200190815260200160002060006101000a81549073ffffffffffffffffffffffffffffffffffffffff02191690556001600360008573ffffffffffffffffffffffffffffffffffffffff1673ffffffffffffffffffffffffffffffffffffffff168152602001908152602001600020600082825403925050819055506001600360008473ffffffffffffffffffffffffffffffffffffffff1673ffffffffffffffffffffffffffffffffffffffff16815260200190815260200160002060008282540192505081905550816002600083815260200190815260200160002060006101000a81548173ffffffffffffffffffffffffffffffffffffffff021916908373ffffffffffffffffffffffffffffffffffffffff160217905550808273ffffffffffffffffffffffffffffffffffffffff168473ffffffffffffffffffffffffffffffffffffffff167fddf252ad1be2c89b69c2b068fc378daa952ba7f163c4a11628f55a4df523b3ef60405160405180910390a4613143838383600161378c565b505050565b613150612ada565b73ffffffffffffffffffffffffffffffffffffffff1661316e612166565b73ffffffffffffffffffffffffffffffffffffffff16146131c4576040517f08c379a00000000000000000000000000000000000000000000000000000000081526004016131bb90615b9e565b60405180910390fd5b565b60006002600083815260200190815260200160002060009054906101000a900473ffffffffffffffffffffffffffffffffffffffff169050919050565b6000600a60009054906101000a900473ffffffffffffffffffffffffffffffffffffffff16905081600a60006101000a81548173ffffffffffffffffffffffffffffffffffffffff021916908373ffffffffffffffffffffffffffffffffffffffff1602179055508173ffffffffffffffffffffffffffffffffffffffff168173ffffffffffffffffffffffffffffffffffffffff167f8be0079c531659141344cd1fd0a4f28419497f9722a3daafe3b4186f6b6457e060405160405180910390a35050565b8173ffffffffffffffffffffffffffffffffffffffff168373ffffffffffffffffffffffffffffffffffffffff161415613338576040517f08c379a000000000000000000000000000000000000000000000000000000000815260040161332f90615c0a565b60405180910390fd5b80600560008573ffffffffffffffffffffffffffffffffffffffff1673ffffffffffffffffffffffffffffffffffffffff16815260200190815260200160002060008473ffffffffffffffffffffffffffffffffffffffff1673ffffffffffffffffffffffffffffffffffffffff16815260200190815260200160002060006101000a81548160ff0219169083151502179055508173ffffffffffffffffffffffffffffffffffffffff168373ffffffffffffffffffffffffffffffffffffffff167f17307eab39ab6107e8899845ad3d59bd9653f200f220920489ca2b5937696c3183604051613429919061407d565b60405180910390a3505050565b60008073ffffffffffffffffffffffffffffffffffffffff16613458836131c6565b73ffffffffffffffffffffffffffffffffffffffff1614159050919050565b613482848484612e4e565b61348e84848484613792565b6134cd576040517f08c379a00000000000000000000000000000000000000000000000000000000081526004016134c490615c9c565b60405180910390fd5b50505050565b606060405180602001604052806000815250905090565b6060600060016134f984613929565b01905060008167ffffffffffffffff811115613518576135176140e9565b5b6040519080825280601f01601f19166020018201604052801561354a5781602001600182028036833780820191505090505b509050600082602001820190505b6001156135b7578080600190039150507f3031323334353637383961626364656600000000000000000000000000000000600a86061a8153600a85816135a1576135a0615cbc565b5b04945060008514156135b2576135b7565b613558565b819350505050919050565b60007f01ffc9a7000000000000000000000000000000000000000000000000000000007bffffffffffffffffffffffffffffffffffffffffffffffffffffffff1916827bffffffffffffffffffffffffffffffffffffffffffffffffffffffff1916149050919050565b61363884848484613a7c565b600181111561367c576040517f08c379a000000000000000000000000000000000000000000000000000000000815260040161367390615d5d565b60405180910390fd5b6000829050600073ffffffffffffffffffffffffffffffffffffffff168573ffffffffffffffffffffffffffffffffffffffff1614156136c4576136bf81613a82565b613703565b8373ffffffffffffffffffffffffffffffffffffffff168573ffffffffffffffffffffffffffffffffffffffff1614613702576137018582613acb565b5b5b600073ffffffffffffffffffffffffffffffffffffffff168473ffffffffffffffffffffffffffffffffffffffff1614156137465761374181613c38565b613785565b8473ffffffffffffffffffffffffffffffffffffffff168473ffffffffffffffffffffffffffffffffffffffff1614613784576137838482613d09565b5b5b5050505050565b50505050565b60006137b38473ffffffffffffffffffffffffffffffffffffffff16613d88565b1561391c578373ffffffffffffffffffffffffffffffffffffffff1663150b7a026137dc612ada565b8786866040518563ffffffff1660e01b81526004016137fe9493929190615dd2565b602060405180830381600087803b15801561381857600080fd5b505af192505050801561384957506040513d601f19601f820116820180604052508101906138469190615e33565b60015b6138cc573d8060008114613879576040519150601f19603f3d011682016040523d82523d6000602084013e61387e565b606091505b506000815114156138c4576040517f08c379a00000000000000000000000000000000000000000000000000000000081526004016138bb90615c9c565b60405180910390fd5b805181602001fd5b63150b7a0260e01b7bffffffffffffffffffffffffffffffffffffffffffffffffffffffff1916817bffffffffffffffffffffffffffffffffffffffffffffffffffffffff191614915050613921565b600190505b949350505050565b600080600090507a184f03e93ff9f4daa797ed6e38ed64bf6a1f0100000000000000008310613987577a184f03e93ff9f4daa797ed6e38ed64bf6a1f010000000000000000838161397d5761397c615cbc565b5b0492506040810190505b6d04ee2d6d415b85acef810000000083106139c4576d04ee2d6d415b85acef810000000083816139ba576139b9615cbc565b5b0492506020810190505b662386f26fc1000083106139f357662386f26fc1000083816139e9576139e8615cbc565b5b0492506010810190505b6305f5e1008310613a1c576305f5e1008381613a1257613a11615cbc565b5b0492506008810190505b6127108310613a41576127108381613a3757613a36615cbc565b5b0492506004810190505b60648310613a645760648381613a5a57613a59615cbc565b5b0492506002810190505b600a8310613a73576001810190505b80915050919050565b50505050565b6008805490506009600083815260200190815260200160002081905550600881908060018154018082558091505060019003906000526020600020016000909190919091505550565b60006001613ad88461209a565b613ae29190615490565b9050600060076000848152602001908152602001600020549050818114613bc7576000600660008673ffffffffffffffffffffffffffffffffffffffff1673ffffffffffffffffffffffffffffffffffffffff168152602001908152602001600020600084815260200190815260200160002054905080600660008773ffffffffffffffffffffffffffffffffffffffff1673ffffffffffffffffffffffffffffffffffffffff168152602001908152602001600020600084815260200190815260200160002081905550816007600083815260200190815260200160002081905550505b6007600084815260200190815260200160002060009055600660008573ffffffffffffffffffffffffffffffffffffffff1673ffffffffffffffffffffffffffffffffffffffff16815260200190815260200160002060008381526020019081526020016000206000905550505050565b60006001600880549050613c4c9190615490565b9050600060096000848152602001908152602001600020549050600060088381548110613c7c57613c7b6154c4565b5b906000526020600020015490508060088381548110613c9e57613c9d6154c4565b5b906000526020600020018190555081600960008381526020019081526020016000208190555060096000858152602001908152602001600020600090556008805480613ced57613cec615e60565b5b6001900381819060005260206000200160009055905550505050565b6000613d148361209a565b905081600660008573ffffffffffffffffffffffffffffffffffffffff1673ffffffffffffffffffffffffffffffffffffffff168152602001908152602001600020600083815260200190815260200160002081905550806007600084815260200190815260200160002081905550505050565b6000808273ffffffffffffffffffffffffffffffffffffffff163b119050919050565b828054613db7906151aa565b90600052602060002090601f016020900481019282613dd95760008555613e20565b82601f10613df257805160ff1916838001178555613e20565b82800160010185558215613e20579182015b82811115613e1f578251825591602001919060010190613e04565b5b509050613e2d9190613f7c565b5090565b828054828255906000526020600020908101928215613e6d579160200282015b82811115613e6c578251825591602001919060010190613e51565b5b509050613e7a9190613f7c565b5090565b6040518060e001604052806060815260200160608152602001606081526020016060815260200160608152602001600081526020016000151581525090565b508054613ec9906151aa565b6000825580601f10613edb5750613efa565b601f016020900490600052602060002090810190613ef99190613f7c565b5b50565b5080546000825590600052602060002090810190613f1b9190613f7c565b50565b6040518060600160405280613f31613f99565b8152602001600073ffffffffffffffffffffffffffffffffffffffff168152602001600081525090565b5080546000825590600052602060002090810190613f799190613f7c565b50565b5b80821115613f95576000816000905550600101613f7d565b5090565b60405180608001604052806000151581526020016000151581526020016000151581526020016000151581525090565b6000604051905090565b600080fd5b600080fd5b60007fffffffff0000000000000000000000000000000000000000000000000000000082169050919050565b61401281613fdd565b811461401d57600080fd5b50565b60008135905061402f81614009565b92915050565b60006020828403121561404b5761404a613fd3565b5b600061405984828501614020565b91505092915050565b60008115159050919050565b61407781614062565b82525050565b6000602082019050614092600083018461406e565b92915050565b6000819050919050565b6140ab81614098565b81146140b657600080fd5b50565b6000813590506140c8816140a2565b92915050565b600080fd5b600080fd5b6000601f19601f8301169050919050565b7f4e487b7100000000000000000000000000000000000000000000000000000000600052604160045260246000fd5b614121826140d8565b810181811067ffffffffffffffff821117156141405761413f6140e9565b5b80604052505050565b6000614153613fc9565b905061415f8282614118565b919050565b600067ffffffffffffffff82111561417f5761417e6140e9565b5b614188826140d8565b9050602081019050919050565b82818337600083830152505050565b60006141b76141b284614164565b614149565b9050828152602081018484840111156141d3576141d26140d3565b5b6141de848285614195565b509392505050565b600082601f8301126141fb576141fa6140ce565b5b813561420b8482602086016141a4565b91505092915050565b60008060008060008060c0878903121561423157614230613fd3565b5b600061423f89828a016140b9565b965050602087013567ffffffffffffffff8111156142605761425f613fd8565b5b61426c89828a016141e6565b955050604087013567ffffffffffffffff81111561428d5761428c613fd8565b5b61429989828a016141e6565b945050606087013567ffffffffffffffff8111156142ba576142b9613fd8565b5b6142c689828a016141e6565b935050608087013567ffffffffffffffff8111156142e7576142e6613fd8565b5b6142f389828a016141e6565b92505060a061430489828a016140b9565b9150509295509295509295565b600081519050919050565b600082825260208201905092915050565b60005b8381101561434b578082015181840152602081019050614330565b8381111561435a576000848401525b50505050565b600061436b82614311565b614375818561431c565b935061438581856020860161432d565b61438e816140d8565b840191505092915050565b600060208201905081810360008301526143b38184614360565b905092915050565b6000602082840312156143d1576143d0613fd3565b5b60006143df848285016140b9565b91505092915050565b600073ffffffffffffffffffffffffffffffffffffffff82169050919050565b6000614413826143e8565b9050919050565b61442381614408565b82525050565b600060208201905061443e600083018461441a565b92915050565b61444d81614408565b811461445857600080fd5b50565b60008135905061446a81614444565b92915050565b6000806040838503121561448757614486613fd3565b5b60006144958582860161445b565b92505060206144a6858286016140b9565b9150509250929050565b6144b981614098565b82525050565b60006020820190506144d460008301846144b0565b92915050565b600080604083850312156144f1576144f0613fd3565b5b60006144ff858286016140b9565b9250506020614510858286016140b9565b9150509250929050565b60008060006060848603121561453357614532613fd3565b5b60006145418682870161445b565b93505060206145528682870161445b565b9250506040614563868287016140b9565b9150509250925092565b600082825260208201905092915050565b600061458982614311565b614593818561456d565b93506145a381856020860161432d565b6145ac816140d8565b840191505092915050565b600081519050919050565b600082825260208201905092915050565b6000819050602082019050919050565b6145ec81614098565b82525050565b60006145fe83836145e3565b60208301905092915050565b6000602082019050919050565b6000614622826145b7565b61462c81856145c2565b9350614637836145d3565b8060005b8381101561466857815161464f88826145f2565b975061465a8361460a565b92505060018101905061463b565b5085935050505092915050565b61467e81614062565b82525050565b600060e08301600083015184820360008601526146a1828261457e565b915050602083015184820360208601526146bb828261457e565b915050604083015184820360408601526146d5828261457e565b915050606083015184820360608601526146ef828261457e565b915050608083015184820360808601526147098282614617565b91505060a083015161471e60a08601826145e3565b5060c083015161473160c0860182614675565b508091505092915050565b600060208201905081810360008301526147568184614684565b905092915050565b600081519050919050565b600082825260208201905092915050565b6000819050602082019050919050565b600060e08301600083015184820360008601526147a7828261457e565b915050602083015184820360208601526147c1828261457e565b915050604083015184820360408601526147db828261457e565b915050606083015184820360608601526147f5828261457e565b9150506080830151848203608086015261480f8282614617565b91505060a083015161482460a08601826145e3565b5060c083015161483760c0860182614675565b508091505092915050565b600061484e838361478a565b905092915050565b6000602082019050919050565b600061486e8261475e565b6148788185614769565b93508360208202850161488a8561477a565b8060005b858110156148c657848403895281516148a78582614842565b94506148b283614856565b925060208a0199505060018101905061488e565b50829750879550505050505092915050565b600060208201905081810360008301526148f28184614863565b905092915050565b600060608201905061490f60008301866144b0565b81810360208301526149218185614360565b905061493060408301846144b0565b949350505050565b6000806040838503121561494f5761494e613fd3565b5b600061495d858286016140b9565b925050602061496e8582860161445b565b9150509250929050565b600061ffff82169050919050565b61498f81614978565b811461499a57600080fd5b50565b6000813590506149ac81614986565b92915050565b6000806000606084860312156149cb576149ca613fd3565b5b60006149d9868287016140b9565b93505060206149ea868287016140b9565b92505060406149fb8682870161499d565b9150509250925092565b600060208284031215614a1b57614a1a613fd3565b5b6000614a298482850161445b565b91505092915050565b600082825260208201905092915050565b6000614a4e826145b7565b614a588185614a32565b9350614a63836145d3565b8060005b83811015614a94578151614a7b88826145f2565b9750614a868361460a565b925050600181019050614a67565b5085935050505092915050565b60006020820190508181036000830152614abb8184614a43565b905092915050565b600081519050919050565b600082825260208201905092915050565b6000819050602082019050919050565b608082016000820151614b056000850182614675565b506020820151614b186020850182614675565b506040820151614b2b6040850182614675565b506060820151614b3e6060850182614675565b50505050565b614b4d81614408565b82525050565b60c082016000820151614b696000850182614aef565b506020820151614b7c6080850182614b44565b506040820151614b8f60a08501826145e3565b50505050565b6000614ba18383614b53565b60c08301905092915050565b6000602082019050919050565b6000614bc582614ac3565b614bcf8185614ace565b9350614bda83614adf565b8060005b83811015614c0b578151614bf28882614b95565b9750614bfd83614bad565b925050600181019050614bde565b5085935050505092915050565b60006020820190508181036000830152614c328184614bba565b905092915050565b614c4381614062565b8114614c4e57600080fd5b50565b600081359050614c6081614c3a565b92915050565b60008060408385031215614c7d57614c7c613fd3565b5b6000614c8b8582860161445b565b9250506020614c9c85828601614c51565b9150509250929050565b600067ffffffffffffffff821115614cc157614cc06140e9565b5b614cca826140d8565b9050602081019050919050565b6000614cea614ce584614ca6565b614149565b905082815260208101848484011115614d0657614d056140d3565b5b614d11848285614195565b509392505050565b600082601f830112614d2e57614d2d6140ce565b5b8135614d3e848260208601614cd7565b91505092915050565b60008060008060808587031215614d6157614d60613fd3565b5b6000614d6f8782880161445b565b9450506020614d808782880161445b565b9350506040614d91878288016140b9565b925050606085013567ffffffffffffffff811115614db257614db1613fd8565b5b614dbe87828801614d19565b91505092959194509250565b600080fd5b600060808284031215614de557614de4614dca565b5b614def6080614149565b90506000614dff84828501614c51565b6000830152506020614e1384828501614c51565b6020830152506040614e2784828501614c51565b6040830152506060614e3b84828501614c51565b60608301525092915050565b600080600060c08486031215614e6057614e5f613fd3565b5b6000614e6e868287016140b9565b9350506020614e7f8682870161445b565b9250506040614e9086828701614dcf565b9150509250925092565b600067ffffffffffffffff821115614eb557614eb46140e9565b5b602082029050602081019050919050565b600080fd5b6000614ede614ed984614e9a565b614149565b90508083825260208201905060208402830185811115614f0157614f00614ec6565b5b835b81811015614f2a5780614f1688826140b9565b845260208401935050602081019050614f03565b5050509392505050565b600082601f830112614f4957614f486140ce565b5b8135614f59848260208601614ecb565b91505092915050565b60008060408385031215614f7957614f78613fd3565b5b6000614f878582860161445b565b925050602083013567ffffffffffffffff811115614fa857614fa7613fd8565b5b614fb485828601614f34565b9150509250929050565b600060208284031215614fd457614fd3613fd3565b5b600082013567ffffffffffffffff811115614ff257614ff1613fd8565b5b614ffe848285016141e6565b91505092915050565b6000806040838503121561501e5761501d613fd3565b5b600061502c8582860161445b565b925050602061503d8582860161445b565b9150509250929050565b61505081614978565b82525050565b600060208201905061506b6000830184615047565b92915050565b7f43616c6c657220646f6573206e6f742068617665207065726d697373696f6e2060008201527f746f20646566696e650000000000000000000000000000000000000000000000602082015250565b60006150cd60298361431c565b91506150d882615071565b604082019050919050565b600060208201905081810360008301526150fc816150c0565b9050919050565b7f4e487b7100000000000000000000000000000000000000000000000000000000600052601160045260246000fd5b600061513d82614098565b91507fffffffffffffffffffffffffffffffffffffffffffffffffffffffffffffffff8214156151705761516f615103565b5b600182019050919050565b7f4e487b7100000000000000000000000000000000000000000000000000000000600052602260045260246000fd5b600060028204905060018216806151c257607f821691505b602082108114156151d6576151d561517b565b5b50919050565b7f4552433732313a20617070726f76616c20746f2063757272656e74206f776e6560008201527f7200000000000000000000000000000000000000000000000000000000000000602082015250565b600061523860218361431c565b9150615243826151dc565b604082019050919050565b600060208201905081810360008301526152678161522b565b9050919050565b7f4552433732313a20617070726f76652063616c6c6572206973206e6f7420746f60008201527f6b656e206f776e6572206f7220617070726f76656420666f7220616c6c000000602082015250565b60006152ca603d8361431c565b91506152d58261526e565b604082019050919050565b600060208201905081810360008301526152f9816152bd565b9050919050565b7f43616c6c657220646f6573206e6f742068617665207065726d697373696f6e2060008201527f746f206d696e7400000000000000000000000000000000000000000000000000602082015250565b600061535c60278361431c565b915061536782615300565b604082019050919050565b6000602082019050818103600083015261538b8161534f565b9050919050565b7f50726f6475637420646f6573206e6f7420657869737400000000000000000000600082015250565b60006153c860168361431c565b91506153d382615392565b602082019050919050565b600060208201905081810360008301526153f7816153bb565b9050919050565b7f4552433732313a2063616c6c6572206973206e6f7420746f6b656e206f776e6560008201527f72206f7220617070726f76656400000000000000000000000000000000000000602082015250565b600061545a602d8361431c565b9150615465826153fe565b604082019050919050565b600060208201905081810360008301526154898161544d565b9050919050565b600061549b82614098565b91506154a683614098565b9250828210156154b9576154b8615103565b5b828203905092915050565b7f4e487b7100000000000000000000000000000000000000000000000000000000600052603260045260246000fd5b7f455243373231456e756d657261626c653a206f776e657220696e646578206f7560008201527f74206f6620626f756e6473000000000000000000000000000000000000000000602082015250565b600061554f602b8361431c565b915061555a826154f3565b604082019050919050565b6000602082019050818103600083015261557e81615542565b9050919050565b7f43616c6c657220646f6573206e6f742068617665207065726d697373696f6e2060008201527f746f20617574686f72697a650000000000000000000000000000000000000000602082015250565b60006155e1602c8361431c565b91506155ec82615585565b604082019050919050565b60006020820190508181036000830152615610816155d4565b9050919050565b600061562282614978565b915061ffff82141561563757615636615103565b5b600182019050919050565b7f455243373231456e756d657261626c653a20676c6f62616c20696e646578206f60008201527f7574206f6620626f756e64730000000000000000000000000000000000000000602082015250565b600061569e602c8361431c565b91506156a982615642565b604082019050919050565b600060208201905081810360008301526156cd81615691565b9050919050565b7f50726f647563742068617320746f6b656e7320617474616368656420746f206960008201527f742e000000000000000000000000000000000000000000000000000000000000602082015250565b600061573060228361431c565b915061573b826156d4565b604082019050919050565b6000602082019050818103600083015261575f81615723565b9050919050565b7f4552433732313a20696e76616c696420746f6b656e2049440000000000000000600082015250565b600061579c60188361431c565b91506157a782615766565b602082019050919050565b600060208201905081810360008301526157cb8161578f565b9050919050565b7f4552433732313a2061646472657373207a65726f206973206e6f74206120766160008201527f6c6964206f776e65720000000000000000000000000000000000000000000000602082015250565b600061582e60298361431c565b9150615839826157d2565b604082019050919050565b6000602082019050818103600083015261585d81615821565b9050919050565b600081905092915050565b600061587a82614311565b6158848185615864565b935061589481856020860161432d565b80840191505092915050565b60006158ac828561586f565b91506158b8828461586f565b91508190509392505050565b7f4f776e61626c653a206e6577206f776e657220697320746865207a65726f206160008201527f6464726573730000000000000000000000000000000000000000000000000000602082015250565b600061592060268361431c565b915061592b826158c4565b604082019050919050565b6000602082019050818103600083015261594f81615913565b9050919050565b7f4552433732313a206d696e7420746f20746865207a65726f2061646472657373600082015250565b600061598c60208361431c565b915061599782615956565b602082019050919050565b600060208201905081810360008301526159bb8161597f565b9050919050565b7f4552433732313a20746f6b656e20616c7265616479206d696e74656400000000600082015250565b60006159f8601c8361431c565b9150615a03826159c2565b602082019050919050565b60006020820190508181036000830152615a27816159eb565b9050919050565b7f4552433732313a207472616e736665722066726f6d20696e636f72726563742060008201527f6f776e6572000000000000000000000000000000000000000000000000000000602082015250565b6000615a8a60258361431c565b9150615a9582615a2e565b604082019050919050565b60006020820190508181036000830152615ab981615a7d565b9050919050565b7f4552433732313a207472616e7366657220746f20746865207a65726f2061646460008201527f7265737300000000000000000000000000000000000000000000000000000000602082015250565b6000615b1c60248361431c565b9150615b2782615ac0565b604082019050919050565b60006020820190508181036000830152615b4b81615b0f565b9050919050565b7f4f776e61626c653a2063616c6c6572206973206e6f7420746865206f776e6572600082015250565b6000615b8860208361431c565b9150615b9382615b52565b602082019050919050565b60006020820190508181036000830152615bb781615b7b565b9050919050565b7f4552433732313a20617070726f766520746f2063616c6c657200000000000000600082015250565b6000615bf460198361431c565b9150615bff82615bbe565b602082019050919050565b60006020820190508181036000830152615c2381615be7565b9050919050565b7f4552433732313a207472616e7366657220746f206e6f6e20455243373231526560008201527f63656976657220696d706c656d656e7465720000000000000000000000000000602082015250565b6000615c8660328361431c565b9150615c9182615c2a565b604082019050919050565b60006020820190508181036000830152615cb581615c79565b9050919050565b7f4e487b7100000000000000000000000000000000000000000000000000000000600052601260045260246000fd5b7f455243373231456e756d657261626c653a20636f6e736563757469766520747260008201527f616e7366657273206e6f7420737570706f727465640000000000000000000000602082015250565b6000615d4760358361431c565b9150615d5282615ceb565b604082019050919050565b60006020820190508181036000830152615d7681615d3a565b9050919050565b600081519050919050565b600082825260208201905092915050565b6000615da482615d7d565b615dae8185615d88565b9350615dbe81856020860161432d565b615dc7816140d8565b840191505092915050565b6000608082019050615de7600083018761441a565b615df4602083018661441a565b615e0160408301856144b0565b8181036060830152615e138184615d99565b905095945050505050565b600081519050615e2d81614009565b92915050565b600060208284031215615e4957615e48613fd3565b5b6000615e5784828501615e1e565b91505092915050565b7f4e487b7100000000000000000000000000000000000000000000000000000000600052603160045260246000fdfea26469706673582212205834e59cf99663b4cd7fb46f66bead07938fbe5f43a4c265defe540fdeb6416164736f6c63430008090033",
  "linkReferences": {},
  "deployedLinkReferences": {}
}