{
  "_format": "hh-sol-artifact-1",
  "contractName": "StringNFT",
  "sourceName": "contracts/_String.sol",
  "abi": [
    {
      "inputs": [],
      "stateMutability": "nonpayable",
      "type": "constructor"
    },
    {
      "inputs": [],
      "name": "MintTooMuchError",
      "type": "error"
    },
    {
      "anonymous": false,
      "inputs": [
        {
          "indexed": true,
          "internalType": "address",
          "name": "owner",
          "type": "address"
        },
        {
          "indexed": true,
          "internalType": "address",
          "name": "approved",
          "type": "address"
        },
        {
          "indexed": true,
          "internalType": "uint256",
          "name": "tokenId",
          "type": "uint256"
        }
      ],
      "name": "Approval",
      "type": "event"
    },
    {
      "anonymous": false,
      "inputs": [
        {
          "indexed": true,
          "internalType": "address",
          "name": "owner",
          "type": "address"
        },
        {
          "indexed": true,
          "internalType": "address",
          "name": "operator",
          "type": "address"
        },
        {
          "indexed": false,
          "internalType": "bool",
          "name": "approved",
          "type": "bool"
        }
      ],
      "name": "ApprovalForAll",
      "type": "event"
    },
    {
      "anonymous": false,
      "inputs": [
        {
          "components": [
            {
              "internalType": "string",
              "name": "name",
              "type": "string"
            },
            {
              "internalType": "address[]",
              "name": "employees",
              "type": "address[]"
            },
            {
              "internalType": "uint32[]",
              "name": "products",
              "type": "uint32[]"
            },
            {
              "internalType": "uint32",
              "name": "productCount",
              "type": "uint32"
            }
          ],
          "indexed": false,
          "internalType": "struct StringModel.Company",
          "name": "company",
          "type": "tuple"
        }
      ],
      "name": "CompanyData",
      "type": "event"
    },
    {
      "anonymous": false,
      "inputs": [
        {
          "indexed": true,
          "internalType": "address",
          "name": "previousOwner",
          "type": "address"
        },
        {
          "indexed": true,
          "internalType": "address",
          "name": "newOwner",
          "type": "address"
        }
      ],
      "name": "OwnershipTransferred",
      "type": "event"
    },
    {
      "anonymous": false,
      "inputs": [
        {
          "indexed": true,
          "internalType": "address",
          "name": "from",
          "type": "address"
        },
        {
          "indexed": true,
          "internalType": "address",
          "name": "to",
          "type": "address"
        },
        {
          "indexed": true,
          "internalType": "uint256",
          "name": "tokenId",
          "type": "uint256"
        }
      ],
      "name": "Transfer",
      "type": "event"
    },
    {
      "inputs": [],
      "name": "MAX_MINT_AMOUNT",
      "outputs": [
        {
          "internalType": "uint16",
          "name": "",
          "type": "uint16"
        }
      ],
      "stateMutability": "view",
      "type": "function"
    },
    {
      "inputs": [
        {
          "internalType": "string",
          "name": "_companyName",
          "type": "string"
        }
      ],
      "name": "addCompany",
      "outputs": [],
      "stateMutability": "nonpayable",
      "type": "function"
    },
    {
      "inputs": [
        {
          "internalType": "uint16",
          "name": "_companyId",
          "type": "uint16"
        },
        {
          "internalType": "address",
          "name": "_employeeAddress",
          "type": "address"
        },
        {
          "internalType": "uint8",
          "name": "_permissions",
          "type": "uint8"
        }
      ],
      "name": "addEmployeeToCompany",
      "outputs": [],
      "stateMutability": "nonpayable",
      "type": "function"
    },
    {
      "inputs": [
        {
          "internalType": "uint16",
          "name": "_companyId",
          "type": "uint16"
        },
        {
          "internalType": "string",
          "name": "_productName",
          "type": "string"
        },
        {
          "internalType": "string",
          "name": "_metadata",
          "type": "string"
        }
      ],
      "name": "addProductToCompany",
      "outputs": [],
      "stateMutability": "nonpayable",
      "type": "function"
    },
    {
      "inputs": [
        {
          "internalType": "address",
          "name": "to",
          "type": "address"
        },
        {
          "internalType": "uint256",
          "name": "tokenId",
          "type": "uint256"
        }
      ],
      "name": "approve",
      "outputs": [],
      "stateMutability": "nonpayable",
      "type": "function"
    },
    {
      "inputs": [
        {
          "internalType": "address",
          "name": "owner",
          "type": "address"
        }
      ],
      "name": "balanceOf",
      "outputs": [
        {
          "internalType": "uint256",
          "name": "",
          "type": "uint256"
        }
      ],
      "stateMutability": "view",
      "type": "function"
    },
    {
      "inputs": [
        {
          "internalType": "address",
          "name": "to",
          "type": "address"
        },
        {
          "internalType": "uint256[]",
          "name": "tokenIds",
          "type": "uint256[]"
        }
      ],
      "name": "bulkTransfer",
      "outputs": [],
      "stateMutability": "nonpayable",
      "type": "function"
    },
    {
      "inputs": [
        {
          "internalType": "uint32",
          "name": "_tokenId",
          "type": "uint32"
        }
      ],
      "name": "burn",
      "outputs": [],
      "stateMutability": "nonpayable",
      "type": "function"
    },
    {
      "inputs": [],
      "name": "counters",
      "outputs": [
        {
          "internalType": "uint16",
          "name": "companyCount",
          "type": "uint16"
        },
        {
          "internalType": "uint32",
          "name": "productCount",
          "type": "uint32"
        },
        {
          "internalType": "uint16",
          "name": "employeeCount",
          "type": "uint16"
        },
        {
          "internalType": "uint64",
          "name": "tokenIdCount",
          "type": "uint64"
        }
      ],
      "stateMutability": "view",
      "type": "function"
    },
    {
      "inputs": [],
      "name": "getAllCompanies",
      "outputs": [
        {
          "components": [
            {
              "internalType": "string",
              "name": "name",
              "type": "string"
            },
            {
              "internalType": "address[]",
              "name": "employees",
              "type": "address[]"
            },
            {
              "internalType": "uint32[]",
              "name": "products",
              "type": "uint32[]"
            },
            {
              "internalType": "uint32",
              "name": "productCount",
              "type": "uint32"
            }
          ],
          "internalType": "struct StringModel.Company[]",
          "name": "",
          "type": "tuple[]"
        }
      ],
      "stateMutability": "view",
      "type": "function"
    },
    {
      "inputs": [
        {
          "internalType": "uint16",
          "name": "_companyId",
          "type": "uint16"
        }
      ],
      "name": "getAllEmployeesInCompany",
      "outputs": [
        {
          "components": [
            {
              "internalType": "uint128",
              "name": "companyId",
              "type": "uint128"
            },
            {
              "internalType": "uint8",
              "name": "permissions",
              "type": "uint8"
            }
          ],
          "internalType": "struct StringModel.Employee[]",
          "name": "",
          "type": "tuple[]"
        }
      ],
      "stateMutability": "view",
      "type": "function"
    },
    {
      "inputs": [
        {
          "internalType": "uint16",
          "name": "_companyId",
          "type": "uint16"
        }
      ],
      "name": "getAllProducts",
      "outputs": [
        {
          "components": [
            {
              "internalType": "string",
              "name": "name",
              "type": "string"
            },
            {
              "internalType": "string",
              "name": "metadata",
              "type": "string"
            },
            {
              "internalType": "uint64[]",
              "name": "productTokens",
              "type": "uint64[]"
            },
            {
              "internalType": "bool",
              "name": "exists",
              "type": "bool"
            }
          ],
          "internalType": "struct StringModel.Product[]",
          "name": "",
          "type": "tuple[]"
        }
      ],
      "stateMutability": "view",
      "type": "function"
    },
    {
      "inputs": [
        {
          "internalType": "uint256",
          "name": "tokenId",
          "type": "uint256"
        }
      ],
      "name": "getApproved",
      "outputs": [
        {
          "internalType": "address",
          "name": "",
          "type": "address"
        }
      ],
      "stateMutability": "view",
      "type": "function"
    },
    {
      "inputs": [
        {
          "internalType": "uint16",
          "name": "_companyId",
          "type": "uint16"
        }
      ],
      "name": "getCompanyBy",
      "outputs": [
        {
          "components": [
            {
              "internalType": "string",
              "name": "name",
              "type": "string"
            },
            {
              "internalType": "address[]",
              "name": "employees",
              "type": "address[]"
            },
            {
              "internalType": "uint32[]",
              "name": "products",
              "type": "uint32[]"
            },
            {
              "internalType": "uint32",
              "name": "productCount",
              "type": "uint32"
            }
          ],
          "internalType": "struct StringModel.Company",
          "name": "",
          "type": "tuple"
        }
      ],
      "stateMutability": "view",
      "type": "function"
    },
    {
      "inputs": [
        {
          "internalType": "address",
          "name": "_employeeAddress",
          "type": "address"
        }
      ],
      "name": "getEmployee",
      "outputs": [
        {
          "components": [
            {
              "internalType": "uint128",
              "name": "companyId",
              "type": "uint128"
            },
            {
              "internalType": "uint8",
              "name": "permissions",
              "type": "uint8"
            }
          ],
          "internalType": "struct StringModel.Employee",
          "name": "",
          "type": "tuple"
        }
      ],
      "stateMutability": "view",
      "type": "function"
    },
    {
      "inputs": [
        {
          "internalType": "uint64",
          "name": "_productId",
          "type": "uint64"
        }
      ],
      "name": "getProduct",
      "outputs": [
        {
          "components": [
            {
              "internalType": "string",
              "name": "name",
              "type": "string"
            },
            {
              "internalType": "string",
              "name": "metadata",
              "type": "string"
            },
            {
              "internalType": "uint64[]",
              "name": "productTokens",
              "type": "uint64[]"
            },
            {
              "internalType": "bool",
              "name": "exists",
              "type": "bool"
            }
          ],
          "internalType": "struct StringModel.Product",
          "name": "",
          "type": "tuple"
        }
      ],
      "stateMutability": "view",
      "type": "function"
    },
    {
      "inputs": [
        {
          "internalType": "address",
          "name": "owner",
          "type": "address"
        },
        {
          "internalType": "address",
          "name": "operator",
          "type": "address"
        }
      ],
      "name": "isApprovedForAll",
      "outputs": [
        {
          "internalType": "bool",
          "name": "",
          "type": "bool"
        }
      ],
      "stateMutability": "view",
      "type": "function"
    },
    {
      "inputs": [
        {
          "internalType": "uint32",
          "name": "_productId",
          "type": "uint32"
        }
      ],
      "name": "mint",
      "outputs": [],
      "stateMutability": "nonpayable",
      "type": "function"
    },
    {
      "inputs": [
        {
          "internalType": "uint64",
          "name": "_productId",
          "type": "uint64"
        },
        {
          "internalType": "uint16",
          "name": "amount",
          "type": "uint16"
        }
      ],
      "name": "mintBulk",
      "outputs": [],
      "stateMutability": "nonpayable",
      "type": "function"
    },
    {
      "inputs": [],
      "name": "name",
      "outputs": [
        {
          "internalType": "string",
          "name": "",
          "type": "string"
        }
      ],
      "stateMutability": "view",
      "type": "function"
    },
    {
      "inputs": [],
      "name": "owner",
      "outputs": [
        {
          "internalType": "address",
          "name": "",
          "type": "address"
        }
      ],
      "stateMutability": "view",
      "type": "function"
    },
    {
      "inputs": [
        {
          "internalType": "uint256",
          "name": "tokenId",
          "type": "uint256"
        }
      ],
      "name": "ownerOf",
      "outputs": [
        {
          "internalType": "address",
          "name": "",
          "type": "address"
        }
      ],
      "stateMutability": "view",
      "type": "function"
    },
    {
      "inputs": [
        {
          "internalType": "uint16",
          "name": "_companyId",
          "type": "uint16"
        }
      ],
      "name": "removeCompany",
      "outputs": [],
      "stateMutability": "nonpayable",
      "type": "function"
    },
    {
      "inputs": [
        {
          "internalType": "address",
          "name": "_employeeAddress",
          "type": "address"
        }
      ],
      "name": "removeEmployee",
      "outputs": [],
      "stateMutability": "nonpayable",
      "type": "function"
    },
    {
      "inputs": [
        {
          "internalType": "uint64",
          "name": "_productId",
          "type": "uint64"
        }
      ],
      "name": "removeProduct",
      "outputs": [],
      "stateMutability": "nonpayable",
      "type": "function"
    },
    {
      "inputs": [],
      "name": "renounceOwnership",
      "outputs": [],
      "stateMutability": "nonpayable",
      "type": "function"
    },
    {
      "inputs": [
        {
          "internalType": "address",
          "name": "from",
          "type": "address"
        },
        {
          "internalType": "address",
          "name": "to",
          "type": "address"
        },
        {
          "internalType": "uint256",
          "name": "tokenId",
          "type": "uint256"
        }
      ],
      "name": "safeTransferFrom",
      "outputs": [],
      "stateMutability": "nonpayable",
      "type": "function"
    },
    {
      "inputs": [
        {
          "internalType": "address",
          "name": "from",
          "type": "address"
        },
        {
          "internalType": "address",
          "name": "to",
          "type": "address"
        },
        {
          "internalType": "uint256",
          "name": "tokenId",
          "type": "uint256"
        },
        {
          "internalType": "bytes",
          "name": "data",
          "type": "bytes"
        }
      ],
      "name": "safeTransferFrom",
      "outputs": [],
      "stateMutability": "nonpayable",
      "type": "function"
    },
    {
      "inputs": [
        {
          "internalType": "address",
          "name": "operator",
          "type": "address"
        },
        {
          "internalType": "bool",
          "name": "approved",
          "type": "bool"
        }
      ],
      "name": "setApprovalForAll",
      "outputs": [],
      "stateMutability": "nonpayable",
      "type": "function"
    },
    {
      "inputs": [
        {
          "internalType": "bytes4",
          "name": "interfaceId",
          "type": "bytes4"
        }
      ],
      "name": "supportsInterface",
      "outputs": [
        {
          "internalType": "bool",
          "name": "",
          "type": "bool"
        }
      ],
      "stateMutability": "view",
      "type": "function"
    },
    {
      "inputs": [],
      "name": "symbol",
      "outputs": [
        {
          "internalType": "string",
          "name": "",
          "type": "string"
        }
      ],
      "stateMutability": "view",
      "type": "function"
    },
    {
      "inputs": [
        {
          "internalType": "uint256",
          "name": "index",
          "type": "uint256"
        }
      ],
      "name": "tokenByIndex",
      "outputs": [
        {
          "internalType": "uint256",
          "name": "",
          "type": "uint256"
        }
      ],
      "stateMutability": "view",
      "type": "function"
    },
    {
      "inputs": [
        {
          "internalType": "address",
          "name": "owner",
          "type": "address"
        },
        {
          "internalType": "uint256",
          "name": "index",
          "type": "uint256"
        }
      ],
      "name": "tokenOfOwnerByIndex",
      "outputs": [
        {
          "internalType": "uint256",
          "name": "",
          "type": "uint256"
        }
      ],
      "stateMutability": "view",
      "type": "function"
    },
    {
      "inputs": [
        {
          "internalType": "uint256",
          "name": "tokenId",
          "type": "uint256"
        }
      ],
      "name": "tokenURI",
      "outputs": [
        {
          "internalType": "string",
          "name": "",
          "type": "string"
        }
      ],
      "stateMutability": "view",
      "type": "function"
    },
    {
      "inputs": [],
      "name": "totalSupply",
      "outputs": [
        {
          "internalType": "uint256",
          "name": "",
          "type": "uint256"
        }
      ],
      "stateMutability": "view",
      "type": "function"
    },
    {
      "inputs": [
        {
          "internalType": "address",
          "name": "from",
          "type": "address"
        },
        {
          "internalType": "address",
          "name": "to",
          "type": "address"
        },
        {
          "internalType": "uint256",
          "name": "tokenId",
          "type": "uint256"
        }
      ],
      "name": "transferFrom",
      "outputs": [],
      "stateMutability": "nonpayable",
      "type": "function"
    },
    {
      "inputs": [
        {
          "internalType": "address",
          "name": "newOwner",
          "type": "address"
        }
      ],
      "name": "transferOwnership",
      "outputs": [],
      "stateMutability": "nonpayable",
      "type": "function"
    },
    {
      "inputs": [
        {
          "internalType": "address",
          "name": "to",
          "type": "address"
        },
        {
          "internalType": "uint256",
          "name": "_tokenId",
          "type": "uint256"
        }
      ],
      "name": "transferTo",
      "outputs": [],
      "stateMutability": "nonpayable",
      "type": "function"
    },
    {
      "inputs": [
        {
          "internalType": "address",
          "name": "targetWallet",
          "type": "address"
        }
      ],
      "name": "walletOfOwner",
      "outputs": [
        {
          "internalType": "uint256[]",
          "name": "",
          "type": "uint256[]"
        }
      ],
      "stateMutability": "view",
      "type": "function"
    }
  ],
  "bytecode": "0x60806040523480156200001157600080fd5b50604080518082018252600981526814dd1c9a5b99d3919560ba1b60208083019182528351808501909452600484526314d3919560e21b9084015281519192916200005f91600091620000eb565b50805162000075906001906020840190620000eb565b5050600e80546001600160801b031916905550620000933362000099565b620001ce565b600f80546001600160a01b038381166001600160a01b0319831681179093556040519116919082907f8be0079c531659141344cd1fd0a4f28419497f9722a3daafe3b4186f6b6457e090600090a35050565b828054620000f99062000191565b90600052602060002090601f0160209004810192826200011d576000855562000168565b82601f106200013857805160ff191683800117855562000168565b8280016001018555821562000168579182015b82811115620001685782518255916020019190600101906200014b565b50620001769291506200017a565b5090565b5b808211156200017657600081556001016200017b565b600181811c90821680620001a657607f821691505b60208210811415620001c857634e487b7160e01b600052602260045260246000fd5b50919050565b613af780620001de6000396000f3fe608060405234801561001057600080fd5b506004361061023d5760003560e01c80637dcac47b1161013b578063d28a4761116100b8578063f27ca7ca1161007c578063f27ca7ca1461059d578063f2fde38b146105bd578063f7210633146105d0578063fa9b701814610641578063fc4f19191461065d57600080fd5b8063d28a476114610508578063d309047d1461051b578063d6483d171461052e578063e904394c14610541578063e985e9c51461056157600080fd5b8063b88d4fde116100ff578063b88d4fde1461049c578063bcf0d4c6146104af578063c87b56dd146104cf578063ce037d82146104e2578063d108177a146104f557600080fd5b80637dcac47b1461044a5780638da5cb5b1461045d57806395d89b411461046e578063a22cb46514610476578063a71bbebe1461048957600080fd5b806332648e09116101c95780636352211e1161018d5780636352211e146103e957806370a08231146103fc578063715018a61461040f57806377a36d74146104175780637a5984c41461043757600080fd5b806332648e091461031d578063408bf4c31461038e57806342842e0e146103a3578063438b6300146103b65780634f6ccce7146103d657600080fd5b806318160ddd1161021057806318160ddd146102bf57806323b872dd146102d1578063269f9eb0146102e45780632ccb1b30146102f75780632f745c591461030a57600080fd5b806301ffc9a71461024257806306fdde031461026a578063081812fc1461027f578063095ea7b3146102aa575b600080fd5b610255610250366004612f99565b610670565b60405190151581526020015b60405180910390f35b61027261069b565b604051610261919061300e565b61029261028d366004613021565b61072d565b6040516001600160a01b039091168152602001610261565b6102bd6102b8366004613056565b610754565b005b6008545b604051908152602001610261565b6102bd6102df366004613080565b61086f565b6102bd6102f236600461318b565b6108a0565b6102bd610305366004613056565b6109e2565b6102c3610318366004613056565b6109f1565b61038161032b3660046131fe565b6040805180820190915260008082526020820152506001600160a01b03166000908152600b60209081526040918290208251808401909352546001600160801b0381168352600160801b900460ff169082015290565b6040516102619190613219565b610396610a87565b6040516102619190613309565b6102bd6103b1366004613080565b610d08565b6103c96103c43660046131fe565b610d23565b604051610261919061336b565b6102c36103e4366004613021565b610dc4565b6102926103f7366004613021565b610e57565b6102c361040a3660046131fe565b610eb7565b6102bd610f3d565b61042a6104253660046133af565b610f51565b604051610261919061345e565b6102bd6104453660046134b3565b6113d5565b6102bd6104583660046134f0565b6113e7565b600f546001600160a01b0316610292565b610272611446565b6102bd610484366004613523565b611455565b6102bd6104973660046134b3565b611460565b6102bd6104aa36600461355f565b611510565b6104c26104bd3660046133af565b611548565b60405161026191906135da565b6102726104dd366004613021565b611820565b6102bd6104f03660046133af565b611894565b6102bd6105033660046131fe565b61190f565b6102bd61051636600461363d565b611950565b6102bd6105293660046136f5565b611992565b6102bd61053c366004613742565b611a64565b61055461054f3660046137b3565b611b82565b60405161026191906137ce565b61025561056f3660046137e1565b6001600160a01b03918216600090815260056020908152604080832093909416825291909152205460ff1690565b6105b06105ab3660046133af565b611d96565b604051610261919061380b565b6102bd6105cb3660046131fe565b611f74565b600e546106079061ffff8082169162010000810463ffffffff1691600160301b82041690600160401b90046001600160401b031684565b6040805161ffff958616815263ffffffff94909416602085015291909316908201526001600160401b039091166060820152608001610261565b61064a6103e881565b60405161ffff9091168152602001610261565b6102bd61066b3660046137b3565b611fea565b60006001600160e01b0319821663780e9d6360e01b1480610695575061069582612073565b92915050565b6060600080546106aa9061381e565b80601f01602080910402602001604051908101604052809291908181526020018280546106d69061381e565b80156107235780601f106106f857610100808354040283529160200191610723565b820191906000526020600020905b81548152906001019060200180831161070657829003601f168201915b5050505050905090565b6000610738826120c3565b506000908152600460205260409020546001600160a01b031690565b600061075f82610e57565b9050806001600160a01b0316836001600160a01b031614156107d25760405162461bcd60e51b815260206004820152602160248201527f4552433732313a20617070726f76616c20746f2063757272656e74206f776e656044820152603960f91b60648201526084015b60405180910390fd5b336001600160a01b03821614806107ee57506107ee813361056f565b6108605760405162461bcd60e51b815260206004820152603d60248201527f4552433732313a20617070726f76652063616c6c6572206973206e6f7420746f60448201527f6b656e206f776e6572206f7220617070726f76656420666f7220616c6c00000060648201526084016107c9565b61086a8383612122565b505050565b6108793382612190565b6108955760405162461bcd60e51b81526004016107c990613853565b61086a83838361220f565b6040805160808101825283815260208082018490528251600080825281830185528385019190915260016060840152600e5462010000900463ffffffff168152600c82529290922081518051929391926108fd9284920190612ca7565b5060208281015180516109169260018501920190612ca7565b5060408201518051610932916002840191602090910190612d2b565b50606091909101516003909101805460ff191691151591909117905561ffff83166000908152600a602090815260408220600e805460029283018054600181018255908652939094206008840401805463ffffffff60079095166004026101000a858102199091166201000096879004861690910217905580549390930490911691906109be836138b6565b91906101000a81548163ffffffff021916908363ffffffff16021790555050505050565b6109ed33838361086f565b5050565b60006109fc83610eb7565b8210610a5e5760405162461bcd60e51b815260206004820152602b60248201527f455243373231456e756d657261626c653a206f776e657220696e646578206f7560448201526a74206f6620626f756e647360a81b60648201526084016107c9565b506001600160a01b03919091166000908152600660209081526040808320938352929052205490565b600e5460609060009061ffff166001600160401b03811115610aab57610aab6130ce565b604051908082528060200260200182016040528015610b0d57816020015b610afa6040518060800160405280606081526020016060815260200160608152602001600063ffffffff1681525090565b815260200190600190039081610ac95790505b50905060005b600e5461ffff9081169082161015610d025761ffff81166000908152600a602052604090819020815160808101909252805482908290610b529061381e565b80601f0160208091040260200160405190810160405280929190818152602001828054610b7e9061381e565b8015610bcb5780601f10610ba057610100808354040283529160200191610bcb565b820191906000526020600020905b815481529060010190602001808311610bae57829003601f168201915b5050505050815260200160018201805480602002602001604051908101604052809291908181526020018280548015610c2d57602002820191906000526020600020905b81546001600160a01b03168152600190910190602001808311610c0f575b5050505050815260200160028201805480602002602001604051908101604052809291908181526020018280548015610cb157602002820191906000526020600020906000905b82829054906101000a900463ffffffff1663ffffffff1681526020019060040190602082600301049283019260010382029150808411610c745790505b50505091835250506003919091015463ffffffff166020909101528251839061ffff8416908110610ce457610ce46138da565b60200260200101819052508080610cfa906138f0565b915050610b13565b50919050565b61086a83838360405180602001604052806000815250611510565b60606000610d3083610eb7565b90506000816001600160401b03811115610d4c57610d4c6130ce565b604051908082528060200260200182016040528015610d75578160200160208202803683370190505b50905060005b82811015610dbc57610d8d85826109f1565b828281518110610d9f57610d9f6138da565b602090810291909101015280610db481613908565b915050610d7b565b509392505050565b6000610dcf60085490565b8210610e325760405162461bcd60e51b815260206004820152602c60248201527f455243373231456e756d657261626c653a20676c6f62616c20696e646578206f60448201526b7574206f6620626f756e647360a01b60648201526084016107c9565b60088281548110610e4557610e456138da565b90600052602060002001549050919050565b6000818152600260205260408120546001600160a01b0316806106955760405162461bcd60e51b8152602060048201526018602482015277115490cdcc8c4e881a5b9d985b1a59081d1bdad95b88125160421b60448201526064016107c9565b60006001600160a01b038216610f215760405162461bcd60e51b815260206004820152602960248201527f4552433732313a2061646472657373207a65726f206973206e6f7420612076616044820152683634b21037bbb732b960b91b60648201526084016107c9565b506001600160a01b031660009081526003602052604090205490565b610f45612380565b610f4f60006123da565b565b61ffff81166000908152600a6020526040808220815160808101909252805460609392919082908290610f839061381e565b80601f0160208091040260200160405190810160405280929190818152602001828054610faf9061381e565b8015610ffc5780601f10610fd157610100808354040283529160200191610ffc565b820191906000526020600020905b815481529060010190602001808311610fdf57829003601f168201915b505050505081526020016001820180548060200260200160405190810160405280929190818152602001828054801561105e57602002820191906000526020600020905b81546001600160a01b03168152600190910190602001808311611040575b50505050508152602001600282018054806020026020016040519081016040528092919081815260200182805480156110e257602002820191906000526020600020906000905b82829054906101000a900463ffffffff1663ffffffff16815260200190600401906020826003010492830192600103820291508084116110a55790505b50505091835250506003919091015463ffffffff908116602090920191909152600e54919250600091620100009004166001600160401b03811115611129576111296130ce565b60405190808252806020026020018201604052801561118757816020015b61117460405180608001604052806060815260200160608152602001606081526020016000151581525090565b8152602001906001900390816111475790505b50905060005b826040015151811015610dbc57600c6000846040015183815181106111b4576111b46138da565b602002602001015163ffffffff166001600160401b031681526020019081526020016000206040518060800160405290816000820180546111f49061381e565b80601f01602080910402602001604051908101604052809291908181526020018280546112209061381e565b801561126d5780601f106112425761010080835404028352916020019161126d565b820191906000526020600020905b81548152906001019060200180831161125057829003601f168201915b505050505081526020016001820180546112869061381e565b80601f01602080910402602001604051908101604052809291908181526020018280546112b29061381e565b80156112ff5780601f106112d4576101008083540402835291602001916112ff565b820191906000526020600020905b8154815290600101906020018083116112e257829003601f168201915b505050505081526020016002820180548060200260200160405190810160405280929190818152602001828054801561138957602002820191906000526020600020906000905b82829054906101000a90046001600160401b03166001600160401b0316815260200190600801906020826007010492830192600103820291508084116113465790505b50505091835250506003919091015460ff16151560209091015282518390839081106113b7576113b76138da565b602002602001018190525080806113cd90613908565b91505061118d565b6113e48163ffffffff1661242c565b50565b6103e861ffff8216111561140e57604051634b09724f60e01b815260040160405180910390fd5b60005b8161ffff168161ffff16101561086a5761143433846001600160401b03166124cf565b8061143e816138f0565b915050611411565b6060600180546106aa9061381e565b6109ed338383612668565b600e8054600160401b90046001600160401b031690600861148083613923565b82546001600160401b0391821661010093840a908102908302199091161790925563ffffffff84166000908152600c602090815260408220600e80546002830180546001810182559086529390942060048404018054600390941660080290950a600160401b94859004871681029087021990931692909217909355549193506109ed92339291909104166124cf565b61151a3383612190565b6115365760405162461bcd60e51b81526004016107c990613853565b61154284848484612737565b50505050565b600e54606090600090600160301b900461ffff166001600160401b03811115611573576115736130ce565b6040519080825280602002602001820160405280156115b857816020015b60408051808201909152600080825260208201528152602001906001900390816115915790505b5090506000600a60008561ffff1661ffff1681526020019081526020016000206040518060800160405290816000820180546115f39061381e565b80601f016020809104026020016040519081016040528092919081815260200182805461161f9061381e565b801561166c5780601f106116415761010080835404028352916020019161166c565b820191906000526020600020905b81548152906001019060200180831161164f57829003601f168201915b50505050508152602001600182018054806020026020016040519081016040528092919081815260200182805480156116ce57602002820191906000526020600020905b81546001600160a01b031681526001909101906020018083116116b0575b505050505081526020016002820180548060200260200160405190810160405280929190818152602001828054801561175257602002820191906000526020600020906000905b82829054906101000a900463ffffffff1663ffffffff16815260200190600401906020826003010492830192600103820291508084116117155790505b50505091835250506003919091015463ffffffff16602090910152905060005b81602001515181101561181757600b600083602001518381518110611799576117996138da565b6020908102919091018101516001600160a01b031682528181019290925260409081016000208151808301909252546001600160801b0381168252600160801b900460ff169181019190915283518490839081106117f9576117f96138da565b6020026020010181905250808061180f90613908565b915050611772565b50909392505050565b606061182b826120c3565b600061184260408051602081019091526000815290565b90506000815111611862576040518060200160405280600081525061188d565b8061186c8461276a565b60405160200161187d929190613940565b6040516020818303038152906040525b9392505050565b61ffff81166000908152600a60205260408120906118b28282612dde565b6118c0600183016000612e18565b6118ce600283016000612e36565b50600301805463ffffffff19169055600e805461ffff169060006118f18361396f565b91906101000a81548161ffff021916908361ffff1602179055505050565b6001600160a01b0381166000908152600b6020526040902080546001600160881b0319169055600e8054600160301b900461ffff169060066118f18361396f565b60005b815181101561086a576119803384848481518110611973576119736138da565b602002602001015161086f565b8061198a81613908565b915050611953565b60408051808201825261ffff80861680835260ff80861660208086019182526001600160a01b0389166000818152600b8352888120975188549451909516600160801b026001600160881b03199094166001600160801b03959095169490941792909217909555918152600a845293842060019081018054918201815585529290932090910180546001600160a01b031916909217909155600e8054600160301b9004909116906006611a44836138f0565b91906101000a81548161ffff021916908361ffff16021790555050505050565b604051806080016040528083838080601f0160208091040260200160405190810160405280939291908181526020018383808284376000920182905250938552505060408051838152602080820183528086019190915281518481528082018352828601526060909401839052600e5461ffff168352600a8452909120835180519193611af693508492910190612ca7565b506020828101518051611b0f9260018501920190612e5b565b5060408201518051611b2b916002840191602090910190612eb0565b50606091909101516003909101805463ffffffff191663ffffffff909216919091179055600e805461ffff16906000611b63836138f0565b91906101000a81548161ffff021916908361ffff160217905550505050565b611baf60405180608001604052806060815260200160608152602001606081526020016000151581525090565b6001600160401b0382166000908152600c6020526040808220815160808101909252805482908290611be09061381e565b80601f0160208091040260200160405190810160405280929190818152602001828054611c0c9061381e565b8015611c595780601f10611c2e57610100808354040283529160200191611c59565b820191906000526020600020905b815481529060010190602001808311611c3c57829003601f168201915b50505050508152602001600182018054611c729061381e565b80601f0160208091040260200160405190810160405280929190818152602001828054611c9e9061381e565b8015611ceb5780601f10611cc057610100808354040283529160200191611ceb565b820191906000526020600020905b815481529060010190602001808311611cce57829003601f168201915b5050505050815260200160028201805480602002602001604051908101604052809291908181526020018280548015611d7557602002820191906000526020600020906000905b82829054906101000a90046001600160401b03166001600160401b031681526020019060080190602082600701049283019260010382029150808411611d325790505b50505091835250506003919091015460ff1615156020909101529392505050565b611dc76040518060800160405280606081526020016060815260200160608152602001600063ffffffff1681525090565b61ffff82166000908152600a6020526040808220815160808101909252805482908290611df39061381e565b80601f0160208091040260200160405190810160405280929190818152602001828054611e1f9061381e565b8015611e6c5780601f10611e4157610100808354040283529160200191611e6c565b820191906000526020600020905b815481529060010190602001808311611e4f57829003601f168201915b5050505050815260200160018201805480602002602001604051908101604052809291908181526020018280548015611ece57602002820191906000526020600020905b81546001600160a01b03168152600190910190602001808311611eb0575b5050505050815260200160028201805480602002602001604051908101604052809291908181526020018280548015611f5257602002820191906000526020600020906000905b82829054906101000a900463ffffffff1663ffffffff1681526020019060040190602082600301049283019260010382029150808411611f155790505b50505091835250506003919091015463ffffffff166020909101529392505050565b611f7c612380565b6001600160a01b038116611fe15760405162461bcd60e51b815260206004820152602660248201527f4f776e61626c653a206e6577206f776e657220697320746865207a65726f206160448201526564647265737360d01b60648201526084016107c9565b6113e4816123da565b6001600160401b0381166000908152600c602052604081209061200d8282612dde565b61201b600183016000612dde565b612029600283016000612f4d565b50600301805460ff19169055600e805462010000900463ffffffff169060026120518361398d565b91906101000a81548163ffffffff021916908363ffffffff1602179055505050565b60006001600160e01b031982166380ac58cd60e01b14806120a457506001600160e01b03198216635b5e139f60e01b145b8061069557506301ffc9a760e01b6001600160e01b0319831614610695565b6000818152600260205260409020546001600160a01b03166113e45760405162461bcd60e51b8152602060048201526018602482015277115490cdcc8c4e881a5b9d985b1a59081d1bdad95b88125160421b60448201526064016107c9565b600081815260046020526040902080546001600160a01b0319166001600160a01b038416908117909155819061215782610e57565b6001600160a01b03167f8c5be1e5ebec7d5bd14f71427d1e84f3dd0314c0f7b2291e5b200ac8c7c3b92560405160405180910390a45050565b60008061219c83610e57565b9050806001600160a01b0316846001600160a01b031614806121e357506001600160a01b0380821660009081526005602090815260408083209388168352929052205460ff165b806122075750836001600160a01b03166121fc8461072d565b6001600160a01b0316145b949350505050565b826001600160a01b031661222282610e57565b6001600160a01b0316146122485760405162461bcd60e51b81526004016107c9906139a3565b6001600160a01b0382166122aa5760405162461bcd60e51b8152602060048201526024808201527f4552433732313a207472616e7366657220746f20746865207a65726f206164646044820152637265737360e01b60648201526084016107c9565b6122b783838360016127fe565b826001600160a01b03166122ca82610e57565b6001600160a01b0316146122f05760405162461bcd60e51b81526004016107c9906139a3565b600081815260046020908152604080832080546001600160a01b03199081169091556001600160a01b0387811680865260038552838620805460001901905590871680865283862080546001019055868652600290945282852080549092168417909155905184937fddf252ad1be2c89b69c2b068fc378daa952ba7f163c4a11628f55a4df523b3ef91a4505050565b600f546001600160a01b03163314610f4f5760405162461bcd60e51b815260206004820181905260248201527f4f776e61626c653a2063616c6c6572206973206e6f7420746865206f776e657260448201526064016107c9565b600f80546001600160a01b038381166001600160a01b0319831681179093556040519116919082907f8be0079c531659141344cd1fd0a4f28419497f9722a3daafe3b4186f6b6457e090600090a35050565b600061243782610e57565b90506124478160008460016127fe565b61245082610e57565b600083815260046020908152604080832080546001600160a01b03199081169091556001600160a01b0385168085526003845282852080546000190190558785526002909352818420805490911690555192935084927fddf252ad1be2c89b69c2b068fc378daa952ba7f163c4a11628f55a4df523b3ef908390a45050565b6001600160a01b0382166125255760405162461bcd60e51b815260206004820181905260248201527f4552433732313a206d696e7420746f20746865207a65726f206164647265737360448201526064016107c9565b6000818152600260205260409020546001600160a01b03161561258a5760405162461bcd60e51b815260206004820152601c60248201527f4552433732313a20746f6b656e20616c7265616479206d696e7465640000000060448201526064016107c9565b6125986000838360016127fe565b6000818152600260205260409020546001600160a01b0316156125fd5760405162461bcd60e51b815260206004820152601c60248201527f4552433732313a20746f6b656e20616c7265616479206d696e7465640000000060448201526064016107c9565b6001600160a01b038216600081815260036020908152604080832080546001019055848352600290915280822080546001600160a01b0319168417905551839291907fddf252ad1be2c89b69c2b068fc378daa952ba7f163c4a11628f55a4df523b3ef908290a45050565b816001600160a01b0316836001600160a01b031614156126ca5760405162461bcd60e51b815260206004820152601960248201527f4552433732313a20617070726f766520746f2063616c6c65720000000000000060448201526064016107c9565b6001600160a01b03838116600081815260056020908152604080832094871680845294825291829020805460ff191686151590811790915591519182527f17307eab39ab6107e8899845ad3d59bd9653f200f220920489ca2b5937696c31910160405180910390a3505050565b61274284848461220f565b61274e84848484612932565b6115425760405162461bcd60e51b81526004016107c9906139e8565b6060600061277783612a3f565b60010190506000816001600160401b03811115612796576127966130ce565b6040519080825280601f01601f1916602001820160405280156127c0576020820181803683370190505b5090508181016020015b600019016f181899199a1a9b1b9c1cb0b131b232b360811b600a86061a8153600a85049450846127f957610dbc565b6127ca565b600181111561286d5760405162461bcd60e51b815260206004820152603560248201527f455243373231456e756d657261626c653a20636f6e7365637574697665207472604482015274185b9cd9995c9cc81b9bdd081cdd5c1c1bdc9d1959605a1b60648201526084016107c9565b816001600160a01b0385166128c9576128c481600880546000838152600960205260408120829055600182018355919091527ff3f7a9fe364faab93b216da50a3214154f22a0a2b415b23a84c8169e8b636ee30155565b6128ec565b836001600160a01b0316856001600160a01b0316146128ec576128ec8582612b17565b6001600160a01b0384166129085761290381612bb4565b61292b565b846001600160a01b0316846001600160a01b03161461292b5761292b8482612c63565b5050505050565b60006001600160a01b0384163b15612a3457604051630a85bd0160e11b81526001600160a01b0385169063150b7a0290612976903390899088908890600401613a3a565b602060405180830381600087803b15801561299057600080fd5b505af19250505080156129c0575060408051601f3d908101601f191682019092526129bd91810190613a77565b60015b612a1a573d8080156129ee576040519150601f19603f3d011682016040523d82523d6000602084013e6129f3565b606091505b508051612a125760405162461bcd60e51b81526004016107c9906139e8565b805181602001fd5b6001600160e01b031916630a85bd0160e11b149050612207565b506001949350505050565b60008072184f03e93ff9f4daa797ed6e38ed64bf6a1f0160401b8310612a7e5772184f03e93ff9f4daa797ed6e38ed64bf6a1f0160401b830492506040015b6d04ee2d6d415b85acef81000000008310612aaa576d04ee2d6d415b85acef8100000000830492506020015b662386f26fc100008310612ac857662386f26fc10000830492506010015b6305f5e1008310612ae0576305f5e100830492506008015b6127108310612af457612710830492506004015b60648310612b06576064830492506002015b600a83106106955760010192915050565b60006001612b2484610eb7565b612b2e9190613a94565b600083815260076020526040902054909150808214612b81576001600160a01b03841660009081526006602090815260408083208584528252808320548484528184208190558352600790915290208190555b5060009182526007602090815260408084208490556001600160a01b039094168352600681528383209183525290812055565b600854600090612bc690600190613a94565b60008381526009602052604081205460088054939450909284908110612bee57612bee6138da565b906000526020600020015490508060088381548110612c0f57612c0f6138da565b6000918252602080832090910192909255828152600990915260408082208490558582528120556008805480612c4757612c47613aab565b6001900381819060005260206000200160009055905550505050565b6000612c6e83610eb7565b6001600160a01b039093166000908152600660209081526040808320868452825280832085905593825260079052919091209190915550565b828054612cb39061381e565b90600052602060002090601f016020900481019282612cd55760008555612d1b565b82601f10612cee57805160ff1916838001178555612d1b565b82800160010185558215612d1b579182015b82811115612d1b578251825591602001919060010190612d00565b50612d27929150612f6e565b5090565b82805482825590600052602060002090600301600490048101928215612d1b5791602002820160005b83821115612d9e57835183826101000a8154816001600160401b0302191690836001600160401b031602179055509260200192600801602081600701049283019260010302612d54565b8015612dd15782816101000a8154906001600160401b030219169055600801602081600701049283019260010302612d9e565b5050612d27929150612f6e565b508054612dea9061381e565b6000825580601f10612dfa575050565b601f0160209004906000526020600020908101906113e49190612f6e565b50805460008255906000526020600020908101906113e49190612f6e565b5080546000825560070160089004906000526020600020908101906113e49190612f6e565b828054828255906000526020600020908101928215612d1b579160200282015b82811115612d1b57825182546001600160a01b0319166001600160a01b03909116178255602090920191600190910190612e7b565b82805482825590600052602060002090600701600890048101928215612d1b5791602002820160005b83821115612f1d57835183826101000a81548163ffffffff021916908363ffffffff1602179055509260200192600401602081600301049283019260010302612ed9565b8015612dd15782816101000a81549063ffffffff0219169055600401602081600301049283019260010302612f1d565b5080546000825560030160049004906000526020600020908101906113e491905b5b80821115612d275760008155600101612f6f565b6001600160e01b0319811681146113e457600080fd5b600060208284031215612fab57600080fd5b813561188d81612f83565b60005b83811015612fd1578181015183820152602001612fb9565b838111156115425750506000910152565b60008151808452612ffa816020860160208601612fb6565b601f01601f19169290920160200192915050565b60208152600061188d6020830184612fe2565b60006020828403121561303357600080fd5b5035919050565b80356001600160a01b038116811461305157600080fd5b919050565b6000806040838503121561306957600080fd5b6130728361303a565b946020939093013593505050565b60008060006060848603121561309557600080fd5b61309e8461303a565b92506130ac6020850161303a565b9150604084013590509250925092565b803561ffff8116811461305157600080fd5b634e487b7160e01b600052604160045260246000fd5b604051601f8201601f191681016001600160401b038111828210171561310c5761310c6130ce565b604052919050565b60006001600160401b0383111561312d5761312d6130ce565b613140601f8401601f19166020016130e4565b905082815283838301111561315457600080fd5b828260208301376000602084830101529392505050565b600082601f83011261317c57600080fd5b61188d83833560208501613114565b6000806000606084860312156131a057600080fd5b6131a9846130bc565b925060208401356001600160401b03808211156131c557600080fd5b6131d18783880161316b565b935060408601359150808211156131e757600080fd5b506131f48682870161316b565b9150509250925092565b60006020828403121561321057600080fd5b61188d8261303a565b81516001600160801b0316815260208083015160ff169082015260408101610695565b60008151608084526132516080850182612fe2565b60208481015186830387830152805180845290820193509091600091908301905b8083101561329b5784516001600160a01b03168252938301936001929092019190830190613272565b50604086810151888303918901919091528051808352908401945090830191506000905b808210156132e557845163ffffffff1683529383019391830191600191909101906132bf565b505060608501519250613300606087018463ffffffff169052565b95945050505050565b6000602080830181845280855180835260408601915060408160051b870101925083870160005b8281101561335e57603f1988860301845261334c85835161323c565b94509285019290850190600101613330565b5092979650505050505050565b6020808252825182820181905260009190848201906040850190845b818110156133a357835183529284019291840191600101613387565b50909695505050505050565b6000602082840312156133c157600080fd5b61188d826130bc565b60008151608084526133df6080850182612fe2565b9050602080840151858303828701526133f88382612fe2565b604086810151888303918901919091528051808352908401945060009250908301905b808310156134445784516001600160401b0316825293830193600192909201919083019061341b565b506060860151151560608801528094505050505092915050565b6000602080830181845280855180835260408601915060408160051b870101925083870160005b8281101561335e57603f198886030184526134a18583516133ca565b94509285019290850190600101613485565b6000602082840312156134c557600080fd5b813563ffffffff8116811461188d57600080fd5b80356001600160401b038116811461305157600080fd5b6000806040838503121561350357600080fd5b61350c836134d9565b915061351a602084016130bc565b90509250929050565b6000806040838503121561353657600080fd5b61353f8361303a565b91506020830135801515811461355457600080fd5b809150509250929050565b6000806000806080858703121561357557600080fd5b61357e8561303a565b935061358c6020860161303a565b92506040850135915060608501356001600160401b038111156135ae57600080fd5b8501601f810187136135bf57600080fd5b6135ce87823560208401613114565b91505092959194509250565b602080825282518282018190526000919060409081850190868401855b828110156136305761362084835180516001600160801b0316825260209081015160ff16910152565b92840192908501906001016135f7565b5091979650505050505050565b6000806040838503121561365057600080fd5b6136598361303a565b91506020808401356001600160401b038082111561367657600080fd5b818601915086601f83011261368a57600080fd5b81358181111561369c5761369c6130ce565b8060051b91506136ad8483016130e4565b81815291830184019184810190898411156136c757600080fd5b938501935b838510156136e5578435825293850193908501906136cc565b8096505050505050509250929050565b60008060006060848603121561370a57600080fd5b613713846130bc565b92506137216020850161303a565b9150604084013560ff8116811461373757600080fd5b809150509250925092565b6000806020838503121561375557600080fd5b82356001600160401b038082111561376c57600080fd5b818501915085601f83011261378057600080fd5b81358181111561378f57600080fd5b8660208285010111156137a157600080fd5b60209290920196919550909350505050565b6000602082840312156137c557600080fd5b61188d826134d9565b60208152600061188d60208301846133ca565b600080604083850312156137f457600080fd5b6137fd8361303a565b915061351a6020840161303a565b60208152600061188d602083018461323c565b600181811c9082168061383257607f821691505b60208210811415610d0257634e487b7160e01b600052602260045260246000fd5b6020808252602d908201527f4552433732313a2063616c6c6572206973206e6f7420746f6b656e206f776e6560408201526c1c881bdc88185c1c1c9bdd9959609a1b606082015260800190565b634e487b7160e01b600052601160045260246000fd5b600063ffffffff808316818114156138d0576138d06138a0565b6001019392505050565b634e487b7160e01b600052603260045260246000fd5b600061ffff808316818114156138d0576138d06138a0565b600060001982141561391c5761391c6138a0565b5060010190565b60006001600160401b03808316818114156138d0576138d06138a0565b60008351613952818460208801612fb6565b835190830190613966818360208801612fb6565b01949350505050565b600061ffff821680613983576139836138a0565b6000190192915050565b600063ffffffff821680613983576139836138a0565b60208082526025908201527f4552433732313a207472616e736665722066726f6d20696e636f72726563742060408201526437bbb732b960d91b606082015260800190565b60208082526032908201527f4552433732313a207472616e7366657220746f206e6f6e20455243373231526560408201527131b2b4bb32b91034b6b83632b6b2b73a32b960711b606082015260800190565b6001600160a01b0385811682528416602082015260408101839052608060608201819052600090613a6d90830184612fe2565b9695505050505050565b600060208284031215613a8957600080fd5b815161188d81612f83565b600082821015613aa657613aa66138a0565b500390565b634e487b7160e01b600052603160045260246000fdfea2646970667358221220720d5aad225053e56a359110f7f26ebffbc076faabd324ebdcb4e4fc8e58ae1464736f6c63430008090033",
  "linkReferences": {},
  "deployedLinkReferences": {}
}